:10000000E0AE0020398400009D8300006984000078
:100010006984000069840000698400000000000019
:1000200000000000000000000000000065810000EA
:10003000698400000000000011810000F9720000D6
:10004000F9830000E57D0100F9830000F9830000D9
:10005000F9830000F9830000F9830000F9830000B0
:10006000F9830000F9830000F9830000F9830000A0
:10007000F9830000F9830000F9830000F983000090
:10008000F9830000F9830000F9830000F983000080
:10009000F9830000F9830000F9830000F983000070
:1000A000F9830000F9830000F9830000F983000060
:1000B000F9830000F9830000F9830000F983000050
:1000C000F9830000F9830000F9830000F983000040
:0C00D000F9830000F9830000F9830000B0
:0400DC00FFFFFFFF24
:1000E00001F0FF01102A2BDB10F0070F08D010F8E9
:1000F000013B013A8B422DD010F0070F42B3F6D1ED
:10010000F0B441EA012141EA014122F007047FF005
:1001100000070023F0E80256083C85EA010586EA5C
:10012000010685FA47F5A3FA87F586FA47F6A5FA98
:1001300087F68EB9EED1F0BC01F0FF0102F00702A4
:1001400032B110F8013B013A83EA010313B1F8D14F
:100150000020704701387047002D06BF3546033830
:10016000073815F0010F07D1013015F4807F02BF69
:10017000013015F4C03F0130F0BC0138704700BFBA
:1001800081F0004102E000BF83F0004330B54FEA48
:1001900041044FEA430594EA050F08BF90EA020FB5
:1001A0001FBF54EA000C55EA020C7FEA645C7FEA48
:1001B000655C00F0E2804FEA5454D4EB5555B8BF6B
:1001C0006D420CDD2C4480EA020281EA030382EADC
:1001D000000083EA010180EA020281EA0303362D6E
:1001E00088BF30BD11F0004F4FEA01314FF4801C41
:1001F0004CEA113102D0404261EB410113F0004F53
:100200004FEA03334CEA133302D0524263EB430309
:1002100094EA050F00F0A780A4F10104D5F1200EA7
:100220000DDB02FA0EFC22FA05F2801841F1000102
:1002300003FA0EF2801843FA05F359410EE0A5F1D6
:1002400020050EF1200E012A03FA0EFC28BF4CF007
:10025000020C43FA05F3C01851EBE37101F00045BD
:1002600007D54FF0000EDCF1000C7EEB00006EEBCA
:100270000101B1F5801F1BD3B1F5001F0CD3490854
:100280005FEA30004FEA3C0C04F101044FEA4452AB
:1002900012F5800F80F09A80BCF1004F08BF5FEA32
:1002A000500C50F1000041EB045141EA050130BD12
:1002B0005FEA4C0C404141EB0101013C28BFB1F524
:1002C000801FE9D291F0000F04BF01460020B1FA6F
:1002D00081F308BF2033A3F10B03B3F120020CDA42
:1002E0000C3208DD02F1140CC2F10C0201FA0CF020
:1002F00021FA02F10CE002F11402D8BFC2F1200C85
:1003000001FA02F120FA0CFCDCBF41EA0C0190403A
:10031000E41AA2BF01EB0451294330BD6FEA040483
:100320001F3C1CDA0C340EDC04F11404C4F120026E
:1003300020FA04F001FA02F340EA030021FA04F380
:1003400045EA030130BDC4F10C04C4F1200220FAD7
:1003500002F001FA04F340EA0300294630BD21FA15
:1003600004F0294630BD94F0000F83F4801306BFDB
:1003700081F480110134013D4EE77FEA645C18BFCF
:100380007FEA655C29D094EA050F08BF90EA020F66
:1003900005D054EA000C04BF1946104630BD91EA5E
:1003A000030F1EBF0021002030BD5FEA545C05D161
:1003B0004000494128BF41F0004130BD14F58004A0
:1003C0003CBF01F5801130BD01F0004545F0FE4114
:1003D00041F470014FF0000030BD7FEA645C1ABF49
:1003E000194610467FEA655C1CBF0B46024650EA80
:1003F000013406BF52EA033591EA030F41F40021AC
:1004000030BD00BF90F0000F04BF0021704730B531
:100410004FF4806404F132044FF000054FF0000106
:1004200050E700BF90F0000F04BF0021704730B5C7
:100430004FF4806404F1320410F0004548BF40429C
:100440004FF000013EE700BF42004FEAE2014FEAF1
:1004500031014FEA02701FBF12F07F4393F07F4FCC
:1004600081F06051704732F07F4208BF704793F0CF
:100470007F4F04BF41F40021704730B54FF46074E2
:1004800001F0004521F000411CE700BF50EA0102E5
:1004900008BF704730B54FF000050AE050EA01028E
:1004A00008BF704730B511F0004502D5404261EBFE
:1004B00041014FF4806404F132045FEA915C3FF43F
:1004C000D8AE4FF003025FEADC0C18BF03325FEADC
:1004D000DC0C18BF033202EBDC02C2F1200300FA8D
:1004E00003FC20FA02F001FA03FE40EA0E0021FAB2
:1004F00002F11444BDE600BF70B54FF0FF0C4CF4A0
:10050000E06C1CEA11541DBF1CEA135594EA0C0F51
:1005100095EA0C0F00F0DEF82C4481EA030621EA8C
:100520004C5123EA4C5350EA013518BF52EA0335C7
:1005300041F4801143F4801338D0A0FB02CE4FF079
:100540000005E1FB02E506F00042E0FB03E54FF0A9
:100550000006E1FB03569CF0000F18BF4EF0010EA1
:10056000A4F1FF04B6F5007F64F5407404D25FEA9D
:100570004E0E6D4146EB060642EAC62141EA555150
:100580004FEAC52040EA5E504FEACE2EB4F1FD0C92
:1005900088BFBCF5E06F1ED8BEF1004F08BF5FEA10
:1005A000500E50F1000041EB045170BD06F00046C2
:1005B00046EA010140EA020081EA0301B4EB5C046F
:1005C000C2BFD4EB0C0541EA045170BD41F4801167
:1005D0004FF0000E013C00F3AB8014F1360FDEBF8C
:1005E000002001F0004170BDC4F10004203C35DA68
:1005F0000C341BDC04F11404C4F1200500FA05F3EB
:1006000020FA04F001FA05F240EA020001F000428B
:1006100021F0004110EBD37021FA04F642EB060101
:100620005EEA430E08BF20EAD37070BDC4F10C042B
:10063000C4F1200500FA04F320FA05F001FA04F2EF
:1006400040EA020001F0004110EBD37041F10001DB
:100650005EEA430E08BF20EAD37070BDC4F12005E6
:1006600000FA05F24EEA020E20FA04F301FA05F24E
:1006700043EA020321FA04F001F0004121FA04F2F6
:1006800020EA020000EBD3705EEA430E08BF20EAC6
:10069000D37070BD94F0000F0FD101F00046400000
:1006A00041EB010111F4801F08BF013CF7D041EA82
:1006B000060195F0000F18BF704703F00046520086
:1006C00043EB030313F4801F08BF013DF7D043EA57
:1006D0000603704794EA0C0F0CEA135518BF95EA0D
:1006E0000C0F0CD050EA410618BF52EA4306D1D194
:1006F00081EA030101F000414FF0000070BD50EAB3
:10070000410606BF1046194652EA430619D094EA3C
:100710000C0F02D150EA013613D195EA0C0F05D126
:1007200052EA03361CBF104619460AD181EA03017A
:1007300001F0004141F0FE4141F470014FF0000032
:1007400070BD41F0FE4141F4780170BD70B54FF0CD
:10075000FF0C4CF4E06C1CEA11541DBF1CEA13554D
:1007600094EA0C0F95EA0C0F00F0A7F8A4EB05042F
:1007700081EA030E52EA03354FEA013100F0888026
:100780004FEA03334FF0805545EA131343EA1263EF
:100790004FEA022245EA111545EA10654FEA0026A4
:1007A0000EF000419D4208BF964244F1FD0404F55D
:1007B000407402D25B084FEA3202B61A65EB0305B9
:1007C0005B084FEA32024FF480104FF4002CB6EB76
:1007D000020E75EB030E22BFB61A754640EA0C00F6
:1007E0005B084FEA3202B6EB020E75EB030E22BF36
:1007F000B61A754640EA5C005B084FEA3202B6EB77
:10080000020E75EB030E22BFB61A754640EA9C0035
:100810005B084FEA3202B6EB020E75EB030E22BF05
:10082000B61A754640EADC0055EA060E18D04FEAC3
:10083000051545EA16754FEA06164FEAC30343EA63
:1008400052734FEAC2025FEA1C1CC0D111F4801F30
:100850000BD141EA00014FF000004FF0004CB6E729
:1008600011F4801F04BF01430020B4F1FD0C88BFC8
:10087000BCF5E06F3FF6AFAEB5EB030C04BFB6EBD3
:10088000020C5FEA500C50F1000041EB045170BDC6
:100890000EF0004E4EEA113114EB5C04C2BFD4EBF3
:1008A0000C0541EA045170BD41F480114FF0000E77
:1008B000013C90E645EA060E8DE60CEA135594EAF3
:1008C0000C0F08BF95EA0C0F3FF43BAF94EA0C0FF6
:1008D0000AD150EA01347FF434AF95EA0C0F7FF46B
:1008E00025AF104619462CE795EA0C0F06D152EABF
:1008F00003353FF4FDAE1046194622E750EA4106A3
:1009000018BF52EA43067FF4C5AE50EA41047FF4B3
:100910000DAF52EA43057FF4EBAE12E74FF0FF3C18
:1009200006E000BF4FF0010C02E000BF4FF0010CE9
:100930004DF804CD4FEA410C7FEA6C5C4FEA430C62
:1009400018BF7FEA6C5C1BD001B050EA410C0CBFB1
:1009500052EA430C91EA030F02BF90EA020F002013
:10096000704710F1000F91EA030F58BF994208BF7A
:1009700090422CBFD8176FEAE37040F00100704737
:100980004FEA410C7FEA6C5C02D150EA013C07D18E
:100990004FEA430C7FEA6C5CD6D152EA033CD3D0D9
:1009A0005DF8040B704700BF8446104662468C46D3
:1009B0001946634600E000BF01B5FFF7B7FF002806
:1009C00048BF10F1000F01BD4DF808EDFFF7F4FF2F
:1009D0000CBF012000205DF808FB00BF4DF808EDBA
:1009E000FFF7EAFF34BF012000205DF808FB00BFDD
:1009F0004DF808EDFFF7E0FF94BF012000205DF8FF
:100A000008FB00BF4DF808EDFFF7CEFF94BF0120B3
:100A100000205DF808FB00BF4DF808EDFFF7C4FFAC
:100A200034BF012000205DF808FB00BF53B94AB96C
:100A3000002908BF00281CBF4FF0FF314FF0FF30E6
:100A400000F06CB9ADF1080C6DE904CE00F006F8C9
:100A5000DDF804E0DDE9022304B070472DE9F0473A
:100A6000089E0D4604468E46002B40F082808A4246
:100A7000174646D9B2FA82F24AB1C2F1200105FA0C
:100A800002F320FA01F1974041EA030E94404FEA45
:100A90001748230CBEFBF8FCB9B208FB1CEE43EA76
:100AA0000E430CFB01F098420AD9FB180CF1FF35FC
:100AB00080F01681984240F21381ACF1020C3B4465
:100AC0001B1AA4B2B3FBF8F008FB103344EA03444A
:100AD00000FB01F1A14209D93C1900F1FF3380F07C
:100AE0000181A14240F2FE8002383C44641A40EA8F
:100AF0000C4000211EB1D4400023C6E90043BDE8EC
:100B0000F08702B9FFDEB2FA82F2002A4FD1CB1B86
:100B10004FEA174E1FFA87F80121B3FBFEFC250CA4
:100B20000EFB1C3345EA034508FB0CF3AB4207D927
:100B30007D190CF1FF3002D2AB4200F2E78084460F
:100B4000ED1AA3B2B5FBFEF00EFB105543EA0544C7
:100B500008FB00F8A04507D93C1900F1FF3302D289
:100B6000A04500F2D7801846A4EB080440EA0C40E8
:100B7000C0E78B4208D9002E00F0AF800021C6E903
:100B800000050846BDE8F087B3FA83F100294BD190
:100B9000AB4202D3824200F2B780841A65EB0303B2
:100BA00001209E46002EAAD0C6E9004EA7E7C2F15A
:100BB000200C01FA02F3974020FA0CF04FEA174E8E
:100BC00021FA0CFC1843BCFBFEF1050C0EFB11CC0A
:100BD0001FFA87F845EA0C4501FB08F3AB4204FA1B
:100BE00002F409D97D1901F1FF3C80F08B80AB4202
:100BF00040F2888002393D44EB1A85B2B3FBFEF027
:100C00000EFB103345EA034500FB08F3AB4207D95E
:100C10007D1900F1FF3C71D2AB426FD902383D44DF
:100C2000EB1A40EA014178E7C1F1200C8B4022FA2F
:100C30000CF71F4320FA0CF405FA01F34FEA174EA4
:100C400025FA0CF51C43230CB5FBFEF91FFA87F8B7
:100C50000EFB195543EA054509FB08FAAA4502FAB5
:100C600001F200FA01F308D97D1909F1FF3047D2EA
:100C7000AA4545D9A9F102093D44A5EB0A05A4B24C
:100C8000B5FBFEF00EFB105544EA054400FB08F8E6
:100C9000A04507D93C1900F1FF352DD2A0452BD92D
:100CA00002383C4440EA0940A4EB0804A0FB028956
:100CB0004C45C6464D4619D316D05EB1B3EB0E0275
:100CC00064EB050404FA0CFCCA404CEA0202CC4076
:100CD000C6E900240021BDE8F087314630460EE722
:100CE000AC46EDE6184601E74345E6D2B8EB020E06
:100CF00069EB07050138E0E72846D3E760468FE750
:100D00008146BAE7614677E708464BE7ACF1020C4B
:100D10003D4415E702383C4426E700BF704700BF5A
:100D20004FEA410C7FEA6C5C02D150EA013C0AD1E7
:100D30004FEA430C7FEA6C5C02D152EA033C02D1D9
:100D40004FF0000070474FF00100704710F8012B82
:100D500011F8013B012A28BF9A42F7D0D01A7047F8
:100D6000034613F8012B002AFBD1181A01387047EB
:100D70002DE9F041D0E90BC7D0F828800CEB07042F
:100D80003034A0450E46154618D81B4F18A3D3E99A
:100D90000023ACFB0701FFF749FEA4EB080420F099
:100DA0007F40306012A3D3E90023A4FB0701FFF7C3
:100DB0003DFE20F07F402860BDE8F0810E4C0CA382
:100DC000D3E90023A8FB0401FFF730FE20F07F43A6
:100DD00007F130003360A0FB040105A3D3E9002331
:100DE000FFF724FE20F07F402860BDE8F08100BFBF
:100DF0008D49FD1A0700000000CA9A3B0000000060
:100E00002DE9F04FAB4C8FB0002800F05B8194F8D7
:100E10004E6016F0010636D194F8392094F82D3042
:100E200094F8290004EB820204EB830300F0030032
:100E3000FF21D2F83C90D3F8308084F82A1016F0C5
:100E4000B7FA94F84E00420700F11581B8F1000F8F
:100E500011D09848414612F043FE98F800305B06E6
:100E600005D506210EF0D4F9002800F03C82914807
:100E7000494612F035FE98F8003013F00E0F40F09E
:100E8000D180636A23B10C2630460FB0BDE8F08FE5
:100E900011F0C8FF8246002800F0418211F0CEFF19
:100EA0008346002800F0538213F0D8F90546002845
:100EB00000F04A824FF6FF73806FAB8505F11C038B
:100EC0000B93002800F0278205F16C0205F1680100
:100ED0000EF0AAF9B5F8642095F83D1095F8DC708D
:100EE00095F840C095F82601734B2B6622F4EF620B
:100EF00022F0070242F4887242F0010201F03F0141
:100F000027F0030E61F07F010027A5F864204FF061
:100F10001B1220F0030085F83D1067F3000C06213A
:100F2000EA65664A85F8DCE085F840C085F8260168
:100F3000A5F8C410C5F81C21C5E91377C5F830A180
:100F400085F83F706F866F636F65A5F8C870A5F868
:100F5000CC70A5F8E87085F8EA70C5F80071A5F8BE
:100F60000471A5F81871C5F82071A5F8247185F8E9
:100F70002F71AF67A5F87C7095F872C195F89A014A
:100F800095F87E1095F85221A5F8507167F3041C6E
:100F900021F01F0122F0070267F3C30085F872C138
:100FA00085F87E1085F85221A5F87071A5F8987122
:100FB000A5F8A47185F89A0113F082FCA5F8D60073
:100FC00013F084FCD5F8A8113D4AA5F8D8000A40D2
:100FD000C5F8A82113F080FC95F8AC2160F302025B
:100FE00085F8AC2113F07EFCC4E911AB0B9B636266
:100FF00095F8AC2195F82030C5F8C07160F3C502B2
:1010000067F30003C5E96E77C5E96C77C5E9057735
:10101000ED6185F8AC2185F8203017F0C3FA00287F
:1010200040F0638194F828300121C3F342030DA8F6
:101030008DF834300EF06CFA88B398F8003003F075
:101040000F03022B00F09C80012B00F0528199F8D5
:1010500001201032D200002B40F03D8198F80110A1
:101060001031C90001F54D73134401F59A7201382E
:1010700002FB003090E0C0F3C000324604F14F01A3
:1010800016F0DCFAFF2884F82A003FF4DFAE304681
:1010900016F0A8F9B8F1000F7FF4DBAEEBE6636A57
:1010A000002B3FF4F0AE12F0C1FA0C2630460FB020
:1010B000BDE8F08FF0590020480148017F41010050
:1010C0000000FFF694F84E30D8077FF5DCAE2046DE
:1010D00011F078FF84420BD0A749A84840F29672DD
:1010E00003F08CFC404080F311884FF0030002DFD6
:1010F00094F82830D9070DAD0ED502220D920321A8
:101100009F4B0095012200200FF0FCFB294611F0B7
:1011100035FF002840F0208102220321984B0095E2
:1011200000200D920FF0EEFB294611F027FF00285A
:1011300040F0F780934811F081FF002840F0DE80F6
:10114000914811F04BFF84420BD08B498B484FF4F0
:10115000F76203F053FC404080F311884FF0030026
:1011600002DF636A0BB112F061FA94F84E30002688
:101170006FF30003304684F84E300FB0BDE8F08FB7
:1011800098F801301033DB0000FB03F303F5AA737A
:101190000138642202FB003094F820307B49E4617E
:1011A000002565F30003312284F820302260C4E971
:1011B00005556FA3D3E90023C4E90155A0FB010144
:1011C000FFF734FCB4F84C90E0600FF0E1FB074609
:1011D000B9F1000F08D198F8005005F00F05A5F1FE
:1011E0000105B5FA85F56D0994F8280065F300004E
:1011F00010F0010584F828003ED0DFF88491E36800
:1012000063490493002002250DF1300801930591F4
:10121000CDE907980321CDE9020006942A46009003
:101220003B460C950FF0E6FA414611F0A7FE002868
:101230007FF435AF574905914AF2D8320092CDE993
:101240000798CDE90300CDE9010006943B46012251
:1012500003210C950FF0CEFA414611F08FFE0028C5
:101260007FF41DAF94F84E30304643F0010384F80C
:101270004E300FB0BDE8F08F4748E268474BDFF8CB
:1012800000E10694A9FB00014FF0910C0CFB091141
:1012900002F2471CC3F800C004923D4A09934FF084
:1012A00002094FF6FF7C05920DF1300830A3D3E917
:1012B0000023CDE907E80295CDF83090CDF80CC0B9
:1012C000FFF7B4FB4A46CDE900503B4628460321D0
:1012D0000FF03AFAC0E7062B3FF4C0AE4FF4DA72D3
:1012E0004FF41B73C3E61226CEE512F09FF90326D6
:1012F000CAE54FF4F2724FF47F73B8E61E491F48F7
:1013000040F2B57203F07AFB404080F311884FF051
:10131000030002DF14E705F17000A867D4E5072693
:10132000B2E5194811F05AFE84423FF4ACAD40F2E8
:10133000AF721149114803F061FB404080F31188FE
:101340004FF0030002DF9EE5584611F07DFD504648
:1013500011F06EFD072697E50B4811F03FFE844221
:101360003FF491AD40F2A172E3E700BFAFF300801C
:101370008D49FD1A07000000B0B10200CC9E0200AA
:10138000D51E01000C5A0020F059002000CA9A3BDB
:101390002D330100B1350100002AE784485A0020AE
:1013A0002DE9F04F044690F8E93090F8E8008342C8
:1013B0008BB00D4616460ED0C01A00F0030002286E
:1013C0001BD094F82D2194F82C319A4230D1002072
:1013D0000BB0BDE8F08F94F8522112F00108F0D163
:1013E00094F805C194F80411614500F05D83981EDE
:1013F000012284F8E90084F8EA2094F8983194F8FE
:1014000099219A4206D094F89A2102F00601042903
:1014100000F08D8394F8EA707A1E052A00F2378373
:10142000DFE812F05C00CF0251023503F802C00180
:1014300029480DF0A5FE58B394F82C3184F82D31CD
:101440000379022243F0030342710371C271D4F89D
:10145000B03194F82E2102722BB394F852219107E7
:1014600021D494F8AB21D2071DD4D4F8BC219342E7
:1014700004BF1A68C4F8BC21D4F8B421B2B91A6800
:10148000026018600368C4E96D000BB9C4F8C001BC
:10149000B4F8CC0000289AD1B4F8C630012B0ED98C
:1014A000A4F8CC3093E7D4F8B42172B1D4F8B831B1
:1014B0001A68026018600368C4F8B801E5E70133F0
:1014C000A4F8CC300BB0BDE8F08F0360C4E96C0029
:1014D000C4F8B801D9E700BFB45C0020A64F3B6850
:1014E000002B00F0E484B4F83680628E94F8063164
:1014F0009044B04413F003031FFA88F840F0AF8320
:10150000B4F8EC90A8EB09021FFA82FA12043FF536
:1015100058AF94F8701194F8712194F8040184F88C
:1015200005018A4294F8E80084F8E90009D094F8AB
:10153000722102F00702052A04BF84F87111A4F891
:10154000CC303B689C4204BF00233B60D4F8007160
:10155000002F00F067853868002800F06385B4F834
:101560000831E18D4268B4F80AC1C4F800218B4209
:1015700000F0AC86B4F80CE1A28DFA8015210022AF
:10158000FB83A7F820C0A7F822E039713A773946E3
:1015900011F060FC11F068FC2368002B09DAD4E933
:1015A000011223F000438A422CBFA9186918236056
:1015B000CD1AE38DB4F8087113FB0AF39BB2B3FBA9
:1015C000F7F117FB01F292B293421FFA81FB80F010
:1015D0001785D31A694840F2E24202FB03F3A3FBEA
:1015E000000163A3D3E90023FFF720FA20F07F4036
:1015F0000544628E94F93D30A9EB0808D844324482
:10160000904440F2E249002BA4F8328009FB07F72E
:10161000C0F217855A495B4840F6871203F0EEF98D
:10162000404080F311884FF0030002DF4FF00008C4
:101630003E46B4F80C21B4F80A11534B53482186A6
:1016400042F2107C0CFB02723B443844B3FBF7F3CC
:1016500001F1060C013AB2FBF7F2B0FBF7F798B2D2
:10166000A4F8C6206045B4F80821A4F8D200A4F874
:10167000CA70E28502DD401A063880B294F806315D
:10168000A4F8CE005B0744BF0023A4F8C8300221B1
:10169000012018F0A7FE00220221814601200DF052
:1016A00011FE3B494FF4E47220460DF09DFDC21C33
:1016B0005FFA82FA374B00945246012100200FF066
:1016C00021F930F002030BD02D492E4840F6B61216
:1016D00003F094F9404080F311884FF0030002DFDB
:1016E000264BA6FB0367304621A3D3E900233946E6
:1016F000FFF79CF9284AE368049320F07F4BABFB8B
:101700000223072000FB0B33B01A67EB0301089498
:1017100006944FF47A720023204F214E07974FF61C
:10172000FE7405960394FFF781F92B46CDE901B0CD
:10173000CDF800805246012100200FF05BF830F018
:1017400002030BD00E490F484FF41D6203F056F907
:10175000404080F311884FF0030002DFB9F1000F21
:1017600040F0CF856FF08B0032E600BFAFF3008012
:101770008D49FD1A07000000305C002000CA9A3B2A
:1017800000B20200CC9E02007FC3C901FF59620271
:10179000685A0020913E01008D49FD1A453E010026
:1017A000296D0100618EE28E94F8EC300A443244D7
:1017B000DF0796B2194600F1C082B4F8EE20B61ADF
:1017C00032043FF5FEAD94F8642094F8658094F8F7
:1017D000E800B4F8627084F8E90013F01C0F02F01E
:1017E000070908F0070840F09585B4F8606013F029
:1017F000E00F08D094F865205B0963F3020284F8D7
:1018000065204FF4A477D4F80051002D00F0A28594
:101810002868002800F09E854368C4F800318B07D3
:1018200094F8642000F1D38694F8653002F0070242
:10183000914503F0070300F07987A18DE9804FF00F
:10184000190C002129776A77AB7785F804C02946FF
:1018500011F000FBD4F80051002D00F0DD85286860
:10186000002800F0D985B4F860304268C4F800213F
:10187000B3420AD3B3F5A47F07D8B4F86230BB42B1
:1018800003D3B3F5A47F40F26587A4F86060A4F8A1
:1018900062702B7FA28DEA8043F0030303210922AB
:1018A00029712B776A77B4F85E30B4F85C202B840A
:1018B0001523AA84EB7729466F84EE8411F0CAFAC7
:1018C00011F0D2FA7DE594F8EC2012F0030500F057
:1018D0008F8294F93D30002BBFF673AD012D7FF45C
:1018E00070ADB5480DF04CFC064600283FF469ADDC
:1018F0000379042243F003030D2100F1080503716D
:101900004171C2710C21284616F074FCB368F2686C
:10191000C4F8FA20C4F8F630D4F8B0313269C4F80B
:101920009C20002B00F0DF8694F85221920700F1F2
:10193000DA8694F8AB21D70700F1D586D4F8BC211C
:10194000934204BF1A68C4F8BC21D4F8B421002A19
:1019500001F03481D4F8B8311A6832601E603368FF
:10196000C4F8B861002B01F0C98011F0A1FA01465A
:1019700000283FF426AD0B7FA28DCA8043F00303FD
:101980000322172048770B770A71CA77D4F85921B8
:10199000D4F855310B624A6294F8533181F82830FB
:1019A00094F8543181F82930086811F053FA11F095
:1019B0005BFA94F8EC30022262F3010384F8EC3015
:1019C000FFE4E28E618E94F8EC300A443244DF0783
:1019D00096B200F1F780B4F8F220B61A31043FF560
:1019E000F0AC94F8E83084F8E930234604F138008C
:1019F00053F8ED2FA2631B79037105210DF088FDCB
:101A000094F83D30012260F3050384F83D3084F8FA
:101A1000C421D6E468480DF0B3FB00283FF4D1ACF4
:101A200094F8E83084F8E930012302794371D4F85E
:101A3000B03142F0030212210271C171002B00F09B
:101A4000D48294F85221910700F1CF8294F8AB210F
:101A5000D20700F1CA82D4F8BC21934204BF1A68AD
:101A6000C4F8BC21D4F8B421002A01F05C80D4F879
:101A7000B8311A68026018600368C4F8B801002B16
:101A800000F0D984B4F8CA30A4F8CC3099E44B49BA
:101A90004B484FF4787202F0B1FF404080F3118858
:101AA0004FF0030002DF8CE494F8191194F81871D8
:101AB000B94253D194F8251194F82471B94200F039
:101AC0001283C91BCF077FF57CAC94F82631D80769
:101AD00040F149879F0740F1348711F0E9F9014649
:101AE00000B394F8243184F82531037FA28DC2809D
:101AF00043F003030B77032006220C2308714A7777
:101B0000CB7794F82701B4F82821B4F82A31A1F84A
:101B1000233081F82000A1F82120086811F09AF9FB
:101B200011F0A2F994F8E80094F8E93044E402F0E6
:101B30000701062901F2928101A050F821F000BFAF
:101B4000411F0000151400001514000015140000BA
:101B5000BD1E0000BD1E000015140000C91BC807F3
:101B60007FF52FAC94F8DC3013F0010700F003840C
:101B700011F09EF901460028D4D094F8183184F869
:101B80001931A78DC0F82080C0F8248003230920D4
:101B90000A7F0B714877D4F82031CF8042F00302DE
:101BA000C3F307270A771A0CC87781F8203081F829
:101BB000217081F82220B0E7B45C002000B202005E
:101BC000CC9E0200BB480DF0DBFA00283FF4F9ABD5
:101BD000238E94F8EC10027933440633A4F8F230E3
:101BE00042F0030223466FF300010826012584F822
:101BF000EC1046710271C57153F8ED2F82601B79AC
:101C00000373D4F8B031B4F8F220A0F80D20002B03
:101C100000F08A8394F85221960700F1858394F8A6
:101C2000AB21D50700F18083D4F8BC21934204BFD7
:101C30001A68C4F8BC21D4F8B421002A00F08987BE
:101C4000D4F8B8311A68026018600368C4F8B801A3
:101C5000002B7FF4B6ABC4F8C001FFF7B2BB012084
:101C600011F008F9064600283FF4ABAB91480DF09F
:101C700087FA054600283FF4A4AB11F019F994F84F
:101C80000611238E3268D4F8000150606FF3010111
:101C9000434484F8061106332979C4F800619BB2E5
:101CA0000C22A4F8EC3041F003016A71D4F8102141
:101CB000D4F8B001804E29710021E971A6FB02120F
:101CC00094F81461B4F808112E72C2F38F22B4F89C
:101CD0000A61A5F80B10B4F80C11A5F80F10A5F8BF
:101CE0000D60A5F81130A5F80920002800F0278321
:101CF00094F852319E0700F1228394F8AB31D90752
:101D000000F11D83D4F8BC31984204BF0368C4F8C5
:101D1000BC31D4F8B431002B00F02387D4F8B831AB
:101D20001A682A601D602868C4F8B85100287FF43A
:101D300048ABC4F8C051FFF744BB022011F09AF839
:101D4000074600283FF43DAB5A480DF019FA054606
:101D500000283FF436AB94F8EC306FF30003C3F384
:101D6000421242EA930212F0070884F8EC30DBB228
:101D700040F0C98594F8E820A4F8EE809E0784F826
:101D8000E92000F183864346404605212A7969719E
:101D900085F808806B72D4F8B031688142F0030294
:101DA00018212A71E971002B00F0498394F852211F
:101DB000900700F1448394F8AB21D10700F13F83F1
:101DC000D4F8BC21934204BF1A68C4F8BC21D4F8EB
:101DD000B421002A00F0D486D4F8B8311A682A60F9
:101DE0001D602B68C4F8B851002B7FF4EAAAA0E765
:101DF00030480DF0C5F9804600283FF4E2AA94F976
:101E00003D30002B00F1040980F2FC8394F87E3011
:101E1000190700F1F08594F8ED50002D00F0A3842F
:101E2000037994F8DC2043F00303D207037140F1F7
:101E30001386D4F81C315B0740F10E861122032370
:101E40004572C271037288F80570D4F8B03100226F
:101E500084F8ED20002B00F0DF8494F852219707DE
:101E600000F1DA8494F8AB21D60700F1D584D4F8D8
:101E7000BC21934204BF1A68C4F8BC21D4F8B42131
:101E8000002A00F0CE86D4F8B8311A68C8F80020CD
:101E9000C3F80080C4F8B881D8F80030002B00F0F7
:101EA0002E8594F8E83084F8E930FFF78ABA3C6070
:101EB000FFF719BBB45C00205917B7D102F0070235
:101EC000B4F89CC1B4F8A011B4F89E91B4F8A28102
:101ED000A4F85EC0042AA4F8621000F0BD8494F84F
:101EE0009A31062262F3020384F89A31D4F8007121
:101EF000002F00F09E843868002800F09A843B7F11
:101F00004268B4F82CE0C4F8002143F00303032234
:101F10003B774FF0090A1523A7F806E0A7F820C081
:101F200079843A71FB773946A7F82490A7F8268080
:101F300087F81DA010F08EFF10F096FFFFF76ABA29
:101F4000DB480DF01DF900283FF464AA94F89A319B
:101F5000B4F89E71B4F8A221A4F8D6700121A4F8B7
:101F6000D82061F30203092284F89A314271027980
:101F7000D4F8B031878142F003024FF0140CC172E3
:101F8000C173002702711B21482280F807C04772E5
:101F9000017282728273002B00F0218394F8522127
:101FA000920700F11C8394F8AB21D70700F1178347
:101FB000D4F8BC21934204BF1A68C4F8BC21D4F8F9
:101FC000B421002A00F0F285D4F8B8311A68026012
:101FD00018600368C4F8B801002B00F04885B4F815
:101FE000CA30A4F8CC30FFF715BAD4F8B421002ACF
:101FF0007FF43DAD0360C4E96C00C4F8B8013EE570
:1020000007FB113340F2E242AA489BB202FB03F302
:10201000A3FB0001A4A3D3E90023FEF707FD2D1ABB
:10202000FFF7E7BAA449A54840F60E1202F0E6FC15
:10203000404080F311884FF0030002DF3868FFF75B
:102040008EBAE26C636C9B4E03FB1A23E36416F0BA
:10205000FBFA804694F8DC00C0F3820016F0F6FA32
:1020600008EB000307FB03F39548E26C94F81411A6
:1020700003F5742303F23F23A0FB03034FEA934AC3
:102080000AFB0BF07B080244963B9A4228BF1A4693
:1020900009FB01FC4FF0000EC4E91232A0FB06015F
:1020A00081A3D3E90023C4F854C0C4F8E4E0C4F821
:1020B00044A0FEF7BBFCD4F8103184468148A0FB55
:1020C0000330800A09FB00F0A0FB060176A3D3E9E8
:1020D0000023A5EB0C05FEF7A9FCA7EB0A0620F0F0
:1020E0007F48FFF7A6BA94F8717194F870118F4287
:1020F00000F0B381744F3968002900F0E8848C4205
:102100007FF45FA994F8721101F00701052900F22C
:10211000B3860FF2080E5EF821F000BF0722000020
:102120008321000035210000B9130000B91300001D
:10213000B913000090073FF544A910F0B9FE01461D
:1021400000283FF4EFAC94F872010B7F032262F396
:10215000020084F872011343A08D0A7118220B77D4
:102160004A77B4F87421B4F87631C880B4F87801AD
:102170000A84B4F87A214B840F238884CA84CB77ED
:10218000CBE494F87381B8F1000F40F0538594F9D3
:102190003D30002BC0F2728594F8723194F87C11B6
:1021A000C4F81081052262F30203012284F872311F
:1021B00084F81421002900F03F86B4F87431B3FB91
:1021C000F1F3134413FB01F39BB294F8722194F8DA
:1021D0000611A4F80831C2F3C0039B0021F00702E6
:1021E00043F002031343B4F87811B4F87A2184F869
:1021F00006310CF1FF3C84F805C1A4F80A11A4F8DB
:102200000C21FFF7DEB82A48B4F83680B4F83290D3
:102210000CF0B6FF014600283FF484AC94F872013C
:102220000A794FF0040C6CF3020042F003024FF005
:10223000180C84F8720108EB09030A7181F805C0D3
:10224000B4F874C1B4F87601B4F87821A1F808C0E4
:102250003344B4F87AC148818A810F200022A1F862
:1022600011304FF0FF33C8714B758B75CB750B7602
:102270004B768B76CB760B774B778B772046A1F816
:102280000EC00A74CA740A7511F0DCFCB4F8CA30C6
:10229000A4F8CC3094F8E80094F8E9303C60FFF7FB
:1022A0008BB800BFAFF300808D49FD1A0700000016
:1022B000B45C002000CA9A3B00B20200CC9E02002F
:1022C00083DE1B435917B7D1305C0020228E624554
:1022D0007FF450A940F2E242B4F80CE1B4F8C61021
:1022E00002FB03FB42F2107202FB0EB2013AB2FB98
:1022F000FBF292B291427FF43FA901233B71FFF7B9
:1023000046B90122104602210CF0DCFF6FF08B0071
:10231000FFF75EB8C3F3820060F3020284F8642022
:102320004FF4A476FFF763BAD4F8B421002A7FF4FF
:1023300087AC0360C4E96C00C4F8B80188E4D4F841
:10234000B431002B7FF4EAAC2860C4E96C55C4F8C2
:10235000B851EBE4A749A84840F68A6202F04EFB68
:10236000404080F311884FF0030002DF286894F8A2
:10237000EC10FFF751BAA1480CF002FF00283FF41F
:10238000D1AB94F819219E4BC4F81C31013A0923B2
:1023900084F81921437194F93D108760C760D4F81F
:1023A0001C310372C3F307221B0C42728372027941
:1023B000D4F8B0310029ACBF08210E2142F003024D
:1023C000C1710271002B00F09A8194F8522191079B
:1023D00000F1958194F8AB21D20700F19081D4F8F7
:1023E000BC21934204BF1A68C4F8BC21D4F8B421BC
:1023F000002A00F00E84D4F8B8311A680260186020
:102400000368C4F8B801002B00F02E83B4F8CA307A
:10241000A4F8CC30FFF786BB7649774840F6B66221
:1024200002F0ECFA404080F311884FF0030002DF25
:102430002868FFF718BAC4F8C001FFF723BBD4F827
:10244000B421002A7FF4C8AC2B60C4E96C55C4F8F1
:10245000B851002B7EF4B5AF6BE494F8987194F802
:102460009921BA4200F0038294F89A1101F0070210
:10247000062A00F204850FF2080C5CF822F000BF77
:1024800029250000B9130000B9130000B91300009A
:102490009D2400009D240000B9130000B4F89C3175
:1024A000A4F85E3001F00703B4F8A021B4F89E91BF
:1024B000B4F8A281A4F86220042B00F095830B46A7
:1024C000062262F3020384F89A31D4F80071002FD7
:1024D00000F07C833868002800F078833B7F4268F6
:1024E000B4F82CC0C4F8002143F003033B77032267
:1024F00009237B773A71B4F85E10B4F862207A84CD
:102500001523FB77A7F806C03984A7F8249039462D
:10251000A7F8268010F09EFC10F0A6FC94F8E800C6
:1025200094F8E930FEF748BF34480CF029FE034622
:1025300000283FF4F7AA94F89A21B4F89E71B4F8F1
:10254000A211A4F8D6700120A4F8D81060F30202FA
:10255000092184F89A2159711979D4F8B0219F8101
:1025600041F003014FF0140CD872D8730027197191
:102570001B20482183F807C05F7218729972997303
:10258000002A00F0088394F85211890700F10383B0
:1025900094F8AB11CF0700F1FE82D4F8BC118A4247
:1025A00004BF1168C4F8BC11D4F8B411002900F0BC
:1025B0004784D4F8B821116819601360C4F8B831A1
:1025C0001A68002A7FF422AFC4F8C0311EE794F8DD
:1025D000653002F0070203F00703FFF72EB9D4F8C5
:1025E000B421002A7FF4F0AC0360C4E96C00C4F8A5
:1025F000B801F1E400B20200CC9E0200B45C0020FD
:102600007F41010004F17F0633462A4604F1EE01C2
:1026100004F25D1017F06CFAD4F88B20C4F8AC20EB
:10262000D4F87F00D4F88310D4F88730C4F8A00021
:102630002246C4F8A830C4F8A41052F8981F94F8A1
:102640009700526894F87E30C4F8BD2094F8B82002
:10265000C4F8B91043F0080365F3000042F001022A
:1026600084F8970084F87E3084F88F5084F8905076
:1026700084F8915084F8925084F8935084F89450E0
:1026800084F8955084F89650C4F8B0504946C4F880
:10269000B45084F8B820204611F090FCD4F8B03142
:1026A000002B37D094F85221950733D494F8AB21FE
:1026B000D0072FD4D4F8BC21934204BF1A68C4F8C1
:1026C000BC21D4F8B421002A00F09882D4F8B831A3
:1026D0001A68C8F80020C3F80080D8F80030C4F8A1
:1026E000B881FFF7DBBBD4F8B421002A7FF432A90C
:1026F0003360C4E96C66C4F8B861FFF733B9D4F845
:10270000B421002A7FF477AE0360C4E96C00C4F8FA
:10271000B80178E6D4F8B421002AD7D1C8F800303F
:10272000C4E96C88C4F8B881FFF7B8BB98457FF45A
:1027300084A801232B71294610F08CFBD4F800519A
:10274000002D00F027832868002800F023834368C9
:10275000C4F8003101232B71294610F07BFB10F0E7
:1027600083FBFEF72EBE04F17F0633462A4604F1B2
:10277000EE0104F25D1017F0BBF9D4F88B20C4F819
:10278000AC20D4F87F00D4F88310D4F88730C4F894
:10279000A0002246C4F8A410C4F8A83052F8981F2C
:1027A00094F8B8005268C4F8BD20C4F8B91094F881
:1027B0007E2094F8971098F8043084F88F5042F0F7
:1027C000080241F0010165F30000012684F87E2033
:1027D00084F8905084F8915084F8925084F8935083
:1027E00084F8945084F8955084F89650C4F8B0500A
:1027F000C4F8B45084F8971084F8B80043F0030389
:10280000052288F8056088F8043088F80720D4F895
:10281000B031002B7FF421ABD4F8B421002A7FF42F
:1028200032ABC8F80030C4E96C88C4F8B881FFF74F
:1028300033BBD049D04840F65B5202F0DFF840404D
:1028400080F311884FF0030002DF3868B4F85EC0EF
:10285000B4F86210FFF753BBB4F8A421002A40F08B
:10286000518184F89931A4F8CC20FFF73FBB94F84C
:10287000A82194F8A91191423EF4A3AD94F8AA11AD
:1028800001F00300032800F0438200287EF499AD94
:10289000BA480CF075FC014600283FF443A994F8AF
:1028A000AA3194F8AC2194F8AB7194F864C001207B
:1028B00060F30103C3F3820060F30202C3F342102A
:1028C00060F3C502C7F34007087984F8AC2167F3C9
:1028D000C30CC3F3820284F8AA3184F864C040F0C8
:1028E0000300C3F3421303270A7216220871CA7148
:1028F0004B724F710022204611F0A4F986E5C4F80E
:10290000C081FFF7CEBA238E33440633A4F8EE30ED
:1029100010F0CEFA3B68D4F800215A60C4F8007178
:1029200010F0C6FA0368D4F800215A6094F8EC302D
:10293000C4F80001C3F38208B4F8EE005B09FFF7A6
:1029400024BA40F67A328B498B4802F057F840405F
:1029500080F311884FF0030002DF94F8E80094F848
:10296000E930FEF729BD85480CF00AFC00283FF449
:10297000D9A894F8252194F82631013A84F8252124
:10298000027943F00103062184F8263142F0030264
:102990004171D4F8B03102710B216FF00E020C2797
:1029A0000172427205214FF0FF32C7718172C2720B
:1029B0000273002B00F0BF8094F85221910700F1C0
:1029C000BA8094F8AB21D20700F1B580D4F8BC21CD
:1029D000934204BF1A68C4F8BC21D4F8B421002A79
:1029E00000F02482D4F8B8311A6802601860C4F884
:1029F000B801036807E54946204611F0DFFAD4F82C
:102A0000B031C3B394F85221950734D494F8AB2174
:102A1000D00730D4D4F8BC21934204BF1A68C4F85C
:102A2000BC21D4F8B421002A00F0C281D4F8B83116
:102A30001A68C8F80020C3F80080C4F8B881D8F834
:102A40000030002B00F0828094F8523123F0030311
:102A500084F85231FFF725BA0D2388F8085088F81A
:102A600007300227FFF7EFB9C4F8C001CEE4C4F87D
:102A7000C001FFF7B4BAD4F8B421002AD6D1C8F8FF
:102A80000030C4E96C88C4F8B881D8E710F010FAB7
:102A90001923A28D87F81C803B7194F86430386844
:102AA000FA80C3F302037B7794F86530C3F3020323
:102AB000BB77394610F0CEF910F0D6F994F8EC3027
:102AC000B4F8EE00C3F382085B09FFF75EB994F82F
:102AD000723103F00703052B00F2CE8101A151F8FA
:102AE00023F000BF072200008321000035210000F1
:102AF000C3130000C3130000C3130000C4F8C06177
:102B0000FEF733BF94F89A01B4F8A671A4F89E2199
:102B1000002363F3020084F89A01A4F8A431A4F816
:102B2000A271FFF7E3B91A68026018600368C4E98C
:102B30006D00FEF7A4BFD4F8B421002A7FF452AF91
:102B40000360C4E96C00C4F8B80152E7C4F8C0815E
:102B50007AE71A68026018600368C4E96D00FFF73D
:102B600077B803682B6005602868C4E96D55FFF7E6
:102B7000DDB800BF00B20200CC9E0200B45C0020B1
:102B80001A682A601D602B68C4E96D55002B7EF41D
:102B900018ACFFF7CEB8D4F8B41100297FF409AD12
:102BA0001A60C4E96C33C4F8B83109E51A680260E8
:102BB00018600368C4E96D00FFF70EBA1A68326046
:102BC0001E603368C4E96D66FEF7CCBEB349B448F5
:102BD00040F65B5201F012FF404080F311884FF045
:102BE000030002DF386879E4B4F8A421002A40F039
:102BF000E78084F89971A4F8CC2066E41A68C8F8D4
:102C00000020C3F80080D8F80030C4E96D88FFF7D1
:102C100045B91A68026018600368C4E96D00FFF7DF
:102C2000F2BB1A68C8F80020C3F80080C4E96D88B8
:102C3000FFF732B99B480CF0A3FA014600283EF496
:102C400071AF037943F003030B71112003220F23AB
:102C5000C8714A710B7294F873314B72204600228E
:102C600010F0F0FF94F8703184F8713100233B606C
:102C700094F8E80094F8E930FEF79EBB89480CF020
:102C80007FFA014600283EF44DAF0379182243F045
:102C9000030303714271B4F87421B4F87631B4F8C7
:102CA00078010A81B4F87A214B8110238881CA8186
:102CB000CB7194F87C310B74B4F87E31B4F8800198
:102CC000B4F88221A1F81130B4F88431A1F81300CE
:102CD000B4F88601A1F81520B4F88821A1F81730BE
:102CE000B4F88A31A1F81D30A1F81900A1F81B2011
:102CF0002046424610F0A6FF94F8703184F87131F6
:102D000094F8E80094F8E930C7F80080FEF754BB67
:102D1000080784F8A921C1F3820269D594F8AA2191
:102D2000022161F3840284F8AA2194F8AA215706AB
:102D30004FEA521154D5022161F3471284F8AA21B7
:102D400094F8AA1194F864C094F8650094F8AB2143
:102D5000C1F382070CF0070C00F00700C2F38002F9
:102D6000BC4508BF00275200B0EB511F42F00102E2
:102D70004FEA511108BF002142EA4112023B42EAE8
:102D80008702062184F8E93084F8EC2084F8EA1000
:102D9000FEF740BB4149424840F6996201F02EFEE1
:102DA000404080F311884FF0030002DF2868CEE432
:102DB0001A68C8F80020C3F80080C4E96D883EE6B0
:102DC00000200B4660F30203A4F89E21B4F8A6216C
:102DD00084F89A31A4F8A401A4F8A221FFF775BBE6
:102DE000C8070FD5012161F3471284F8AA21A7E78C
:102DF000D10710D594F8AA21012161F3840284F847
:102E0000AA2192E711F0040118BF042161F34712CF
:102E100084F8AA2194E712F0040218D094F8AA21A9
:102E2000042161F3840284F8AA217EE71A68026013
:102E30001860C4E96D00DCE5B4F87631FFF7C5B978
:102E4000116819601360C4E96D33FFF7B9BB94F8DA
:102E5000AA1162F3840184F8AA1166E70F491048A9
:102E600040F6835201F0CAFD404080F311884FF0D4
:102E7000030002DFFEF7CEBA40F6874263E507495A
:102E8000074840F6835201F0B9FD404080F31188B5
:102E90004FF0030002DFFEF745BE00BF00B20200A4
:102EA000CC9E0200B45C00202DE9F04F1C46136854
:102EB0000D46D3F800A031F82ECF2346174653F81D
:102EC0000C6B8A78A4F80CC09A70D5F82A30A360ED
:102ED0002B46814653F83A2FE26104F11C001B791E
:102EE000037193B005210CF013FB94F8213000F02E
:102EF0003F0060F30503012884F821300AD995F8D2
:102F00003F3003F01F02053AC3F304010B2A84F893
:102F1000221002D913B0BDE8F08F3A6896F8DC10A1
:102F200000209060B5F83480A4F8128095F836201F
:102F300095F8370042EA0022A2825B0963F384011C
:102F40006B8E0B9386F8DC1040F2E2431FFA88F890
:102F500003FB08F815F078FB834696F8DC00C0F315
:102F6000820015F073FB584408FB00F0DFF81CE307
:102F700095F831C0A18ABC4A00F5742000F23F20C8
:102F8000AEFB00304FEA580E40F2E24303FB0CF375
:102F9000800CAEF1960EA062C4F82CE0E3632B8F98
:102FA000ADF83230184642F2107E80B20EFB00803F
:102FB000AE4B424401F1060E0138B2FBF8F2B0FB11
:102FC000F8F0A6F8C60090B270454344A6F8D200C7
:102FD000B3FBF8FCA6F8CAC002DD401A063880B27E
:102FE000A6F8CE002946A268C6F8E02051F81E0FC8
:102FF00095F81CB08A8810904FF4807CA5F81CC00E
:10300000CBF380138DF838309AF82A000D91CBF36A
:103010004013ADF8442097F812B08DF83C300A9375
:1030200014F000FE0D99002840F0EA80BBF1FF0F7C
:10303000C5F82B00A5F82F0000F0EE80584605F1EA
:103040001F0214F001F9AA7FBDF844101098A5F8EA
:1030500029100232AA77C5F8250096F8DC20608A8C
:10306000A18ABDF83230EB86C2F38202688685F809
:103070003820A986304611F0FDF829462082E880E4
:103080007D6848460FF0E6FE238AEB8018232B71FB
:103090000A9B2868002B00F0CF8094F809E0237A7F
:1030A00094F80BC0A17A94F8212041EA0C2143EA5C
:1030B0000E234B4042F040020121638484F821201A
:1030C000297729460FF0C6FE0FF0CEFE94F849008E
:1030D000012100F0070015F0D5F9654A4FF000090D
:1030E0008346312300F25240A0FB02013360C6E95F
:1030F00001995BA3D3E90023FDF798FCFD680B99C8
:10310000A36A40F2E24220F07F4002FB0155F060EA
:103110004A4602210120A8EB03080CF0D3F85046E0
:1031200010F01AFC821C534BCDF800A0D2B24846D6
:1031300001210DF0E7FB05F286350128A5EB0B0513
:1031400000F086809AF82830DB0779D4304611F0F9
:1031500091F8DFF81CB1A8FB0B8941A3D3E9002348
:10316000044649464046FDF761FC434A069620F076
:103170007F4AAAFB0223072101FB0A334FF4B671F1
:10318000BF6808913D4907913D490591B8EB0200A0
:1031900069EB0301F368049300264FF47A7200236D
:1031A0000396FDF743FC2EA3D3E900238446A5FB39
:1031B0000B01CDE901ACFDF739FC033420F07F4071
:1031C000E4B2313F3B4600902246304601210DF0EB
:1031D00011FB30F002030BD02A492B4840F26D124C
:1031E00001F00CFC404080F311884FF0030002DF37
:1031F00001221046022113B0BDE8F04F0CF062B876
:103200002846BBF1FF0F50F824CFC5F82BC08088AB
:10321000A5F82F007FF412AF0021BDF844C010982C
:103220009DF83830C5F82510A5F82910A5F823C059
:10323000AB77C5F81F0010E79DF83C302B7740E7CF
:10324000002301220093184611460DF05BFB7DE739
:103250000FF0D0FE82453FF475AF13F045FD71E7E6
:103260008D49FD1A070000007FC3C901FF596202A2
:1032700000CA9A3B0D6D01008D49FD1AC16C010019
:10328000296D010060B20200CC9E020083DE1B4368
:103290002DE9F04FDFF8F890394C8FB005460DF16D
:1032A00037010DF136000FF047FE9DF836A09DF86E
:1032B00037B00DF06DFBD9F80060A6FB04672EA3B4
:1032C000D3E90023804639463046FDF7AFFB02467E
:1032D000D9F804002B4B0695A0FB040100251446E9
:1032E000059325A3D3E90023CDE90755FDF79EFB00
:1032F000254A039524F07F44A4FB0223CDE90A6705
:103300000146072000FB0433B01A21F07F460B99D9
:10331000049661EB03014FF47A720023FDF786FBFC
:1033200001940290434600955A46504603210DF001
:1033300061FA30F0020404D06FF08B000FB0BDE8EA
:10334000F08F124845F6B312002322F017FF20B980
:10335000D9F80C000FB0BDE8F08F9DF837209DF82C
:1033600036000094234603210DF0CCFA6FF0730071
:10337000E4E700BFAFF300808D49FD1A07000000AD
:1033800000CA9A3B6DB301008D49FD1AE464002028
:10339000D46400200000000070B50F4E04460DF00C
:1033A000F7FAB1680DF0F6FA0C4B05467068B5FBFC
:1033B000F4F4A0FB030106A3D3E90023FDF736FBD9
:1033C0002C4420F07F40844294BF0020012070BD37
:1033D0008D49FD1A07000000D464002000CA9A3B02
:1033E0002DE9F04F23F00045904699461E461346BE
:1033F00055EA080293B035D06B4A009021F00044A2
:10340000944283468A460F4625DC34D0954222DC1E
:10341000654A95421DD0002F36DB00220292002B18
:103420004CD1614B9D4200F09780604B9D4200F073
:10343000A580B6F1804F00F0B9845D4B9E423DD12E
:10344000002F3BDB5846514613B0BDE8F04F23F048
:1034500021BF002BDFD0009B04F1404404F5801411
:1034600023430BD1514C0023CDE90034DDE90001A9
:1034700013B0BDE8F08F08B9A542C9DD4D4813B0BF
:10348000BDE8F04F23F0D6BF4B4A95427EDCA2F157
:10349000547295420EDD2A15A2F2FF32142A40F32F
:1034A0008F84C2F1340223FA02F101FA02F29A4245
:1034B00000F0DC8400220292002BB6D05846514620
:1034C00023F0ACFF5B46CDE9000133BB24B1374BA1
:1034D00027F040429A4220D1002E07DADDE900238E
:1034E00032490020FDF732F9CDE90001002FBDDAA5
:1034F000029B04F1404404F58014234340F085848A
:10350000DDE9002310461946FCF73EFE02460B4655
:10351000FDF71CF9CDE90001A8E7029AFB0F013B7A
:103520000A93134335D0254B9D424BDD03F10473C1
:103530009D42234B40F3C8839C4240F35483002EAA
:1035400040F3548316A3D3E9002310461946FCF731
:10355000D3FFCDE9000189E7009A04F1404303F568
:10356000801313433FF47EAF154B9C4240F36883B6
:10357000002EC0F23B83CDE9008977E7002EC0F230
:103580000B8458465146CDE900016FE702220292B2
:1035900045E75A46584653465146B5E7AFF30080D3
:1035A0009C7500883CE4377E0000F07F0000F03F0F
:1035B0000000E03F48B20200FFFF3F430000E0414F
:1035C000FFFFEF3FD44B3B40002B40F04683DDE94B
:1035D0000001D24B0022FCF78FFFCDE900010C4621
:1035E0006FF034062315CE4DC4F31302A3F2FF335C
:1035F00042F07F549919AA420B9144F4401440F3CD
:103600002783C84B9A4240F30D8400220023CDE962
:10361000082301310B91A4F58014CDE91023C24B8E
:103620000022CDE906230025DDE90001DDE90623BE
:1036300021468246FCF7A8FDA346DDE9062306469F
:103640000F4650462146CDE90CABFCF79FFD0246E4
:103650000B460020B449FDF779F80A460146CDE94A
:103660000E121346394602463046FCF745FF6410F9
:1036700044F0005482468B4604F500238C46CDE985
:1036800004AB5919D3460023CDE900BC0093DDE912
:1036900000AB002004460D4602460B4650465946F4
:1036A000FCF72AFF02460B4630463946FCF76CFD14
:1036B000DDE9062306460F4620462946FCF764FD51
:1036C00002460B46DDE90C01FCF75EFD52465B4607
:1036D000FCF712FF02460B4630463946FCF754FD14
:1036E000DDE90E23FCF708FF04460D46DDE9040181
:1036F00002460B46CDE90645FCF7FEFE74A3D3E96E
:10370000002304460D46FCF7F7FE73A3D3E900231C
:10371000FCF73CFD22462B46FCF7EEFE70A3D3E9F6
:103720000023FCF733FD22462B46FCF7E5FE6EA393
:10373000D3E90023FCF72AFD22462B46FCF7DCFEEA
:103740006BA3D3E90023FCF721FD22462B46FCF7AF
:10375000D3FE69A3D3E90023FCF718FD22460646F1
:103760000F462B4620462946FCF7C6FE02460B466E
:1037700030463946FCF7C0FE524604460D465B46CD
:10378000DDE90401FCF702FDDDE90623FCF7B4FEE8
:1037900022462B46FCF7FAFC524604460D465B4691
:1037A00050465946FCF7A8FE26462F4604460D46CD
:1037B0005E4B0022CDE90C45FCF7E8FC32463B4667
:1037C000FCF7E4FC009C0D4622462B465046594629
:1037D000FCF792FE554B82468B4600222046294636
:1037E000FCF7D2FCDDE90C23FCF7CEFC02460B46CD
:1037F00030463946FCF7C8FCDDE90423FCF77CFEC3
:10380000224606460F462B46DDE90601FCF774FE0C
:1038100002460B4630463946FCF7B8FC06460F46D2
:1038200002460B4650465946CDE904ABFCF7AEFCC8
:10383000009C33A3D3E9002320460D46FCF75CFE31
:10384000DDE9042382468B4620462946FCF79CFC92
:1038500002460B4630463946FCF796FC2AA3D3E9CC
:103860000023FCF749FE2AA3D3E9002306460F46AE
:1038700020462946FCF740FE02460B4630463946B4
:10388000FCF784FCDDE91023FCF780FC04460B9870
:103890000D46FCF7C7FD224606460F462B4650460E
:1038A0005946CDE90445FCF771FCDDE90823FCF736
:1038B0006DFC32463B46FCF769FC009C32463B46B9
:1038C00020460D46FCF760FC32E000BFAFF30080FD
:1038D000EF4E454A287ECA3F65DBC9934A86CD3FF5
:1038E00001411DA96074D13F4D268F515555D53FDB
:1038F000FFAB6FDBB66DDB3F033333333333E33F73
:10390000000000E009C7EE3FFD033ADC09C7EE3FC7
:10391000F5015B14E02F3EBE0000F07F0000404345
:103920008E98030079B60B000000F03F00000840BD
:10393000DDE90823FCF728FC52465B46FCF724FC33
:1039400002460B46DDE90401FCF71EFC82468B466D
:10395000029B0A9A013B13430CBFD54BD54B002267
:10396000CDE904230023CDE900890093DDE9006758
:10397000404632463B464946FCF706FC22462B466B
:10398000FCF7BAFD4246CDE902014B465046594686
:10399000FCF7B2FD02460B46DDE90201FCF7F6FB3F
:1039A00032463B4682468B4620462946FCF7A4FD1C
:1039B0000B46024606460F4650465946FCF7E6FBC4
:1039C000BD4B994204460D46884640F3148101F1EF
:1039D0003F4303F5E003034340F00782A0A3D3E98C
:1039E000002350465946FCF7D1FB3246CDE9000191
:1039F0003B4620462946FCF7C7FB02460B46DDE95D
:103A00000001FDF709F8002840F0EF81C8F30A53E0
:103A10004FF48012A3F2FE3342FA03F34344A74962
:103A2000C3F30A52A2F2FF3241FA02FCC3F31305B8
:103A300023EA0C01C2F1140445F48015B8F1000F1B
:103A40000B4645FA04F102914FF00000B8BF49421D
:103A50000246B8BF029130463946FCF795FB0B464B
:103A6000024606460F4650465946FCF78FFB029B1E
:103A70001B050D46009300247BA3D3E900232046B9
:103A80002946FCF739FD3246804689463B462046AA
:103A90002946FCF779FB02460B4650465946FCF78F
:103AA00073FB73A3D3E90023FCF726FD72A3D3E9CC
:103AB000002306460F4620462946FCF71DFD024618
:103AC0000B4630463946FCF761FB06460F46024678
:103AD0000B4640464946FCF759FB42464B460D46CD
:103AE0000446FCF751FB02460B4630463946FCF7CC
:103AF0004BFB2B4682468B46224629462046FCF746
:103B0000FBFC5FA3D3E9002306460F46FCF7F4FC59
:103B10005DA3D3E90023FCF737FB32463B46FCF7B5
:103B2000EBFC5BA3D3E90023FCF730FB32463B46BA
:103B3000FCF7E2FC58A3D3E90023FCF725FB32464F
:103B40003B46FCF7D9FC56A3D3E90023FCF71EFB48
:103B500032463B46FCF7D0FC02460B46204629463F
:103B6000FCF712FB06460F4602460B462046294646
:103B7000FCF7C2FC002280468946304639464FF0A9
:103B80008043FCF701FB02460B4640464946FCF7E2
:103B9000DDFD524606460F465B4629462046FCF7A9
:103BA000ABFC52465B46FCF7F1FA02460B46304648
:103BB0003946FCF7E9FA2B462246FCF7E5FA0246BD
:103BC0000B4600203B49FCF7DFFA009D0D44B5F59C
:103BD000801FC0F247812946DDE90423FCF78CFCF5
:103BE000CDE9000142E4002EFFF6ACAC0023002436
:103BF000CDE900343AE4DFF8CCC021F0004363455E
:103C000040F3EB802E4B0B4403430AD132463B4634
:103C1000FCF7BAFA52465B46FCF7F4FE00283FF484
:103C2000F5AE21A3D3E90023DDE90401FCF764FC30
:103C30001DA3D3E90023FCF75FFCCDE9000115E4E7
:103C4000002ED3DA09F10043CDF8008001930DE492
:103C500000220023CDE90823DFE40026C2E400BFF0
:103C6000FE822B654715973C00000000432EE63F7F
:103C7000EF39FAFE422EE63F396CA80C615C20BE9B
:103C8000D0A4BE726937663EF16BD2C541BDBB3E62
:103C90002CDE25AF6A56113F93BDBE166CC1663F40
:103CA0003E5555555555C53F59F3F8C21F6EA501F0
:103CB0000000F0BF0000F03FFFFF8F40FFFF0F004C
:103CC00000346F3FFFCB90409C428CDB804B9C428A
:103CD0003FF735ACDDE900017D4B0022FCF754FADB
:103CE0006DA3D3E9002304460D46FCF705FC6CA345
:103CF000D3E9002306460F4620462946FCF7FCFB85
:103D0000B246BB4606460F46724B00222046294665
:103D1000FCF7F2FB02460B4663A1D1E90001FCF778
:103D200033FA22462B46FCF7E7FB02460B460020FF
:103D30006949FCF729FA2246CDE900012B462046C5
:103D40002946FCF7D9FB02460B46DDE90001FCF7EA
:103D5000D3FB57A3D3E90023FCF7CEFB02460B4667
:103D600030463946FCF710FA02460B4606460F4627
:103D700050465946FCF70AFA002452465B46204654
:103D80000D46FCF701FA02460B4630463946FCF771
:103D9000FBF982468B46DBE54D495A4653460020E7
:103DA000FCF7D4FCCDE90001FFF760BB5A4658464A
:103DB00053465146FCF7A0FBCDE90001FFF756BB87
:103DC000002B41D1C2F1140245FA02F101FA02F2CC
:103DD000AA4255D00293FFF728BB3F4A934256DCD4
:103DE000DDE900120091029145E633A3D3E90023F7
:103DF000DDE90401FCF780FB2FA3D3E90023FCF7E6
:103E00007BFBCDE90001FFF731BB029B012B7FF467
:103E10002DABDDE90045224605F10043CDE9002345
:103E2000FFF724BB26A3D3E90023CDE9082326A36B
:103E3000D3E90023CDE91023284B0022CDE9062346
:103E40004FF48025FFF7F0BB5846514623F0E6FAC1
:103E50005B46CDE90001002B7FF49BABCDF808B0A9
:103E6000FFF734BB029A00F03BF8B5E601F0010120
:103E7000C1F102020292002B3FF4D7AAFFF71EBB4A
:103E800001F00101C1F102030293FFF7CEBA1B1545
:103E9000BEE500BFAFF30080000000604715F73FAC
:103EA00044DF5DF80BAE543E555555555555D53F3D
:103EB000FE822B654715F73F9C7500883CE4377EF2
:103EC0000000004003B8E23F06D0CF43EBFD4C3E7C
:103ED0000000F03F0000D03F0000E03F0000F83F4E
:103EE000F8B5C1F30A5304460D460E46174673BB98
:103EF00021F000460346334328D0314B0022FCF723
:103F0000FBFA304B9F4204460D461ADBC1F30A53BD
:103F10000E46363B3B4440F2FE72934220DC002BBF
:103F20003CDC13F1350F2CDA4CF250339F4217DC96
:103F300005F0004343F0D27141F4B731224841F01B
:103F40001F011BA3D3E90023FCF7D6FAF8BD40F20A
:103F5000FF729342DED102460B46FCF717F9F8BD1B
:103F600005F0004343F0FC4141F45F1141F410516E
:103F700011A3D3E90023154841F03C01FCF7BCFA3A
:103F8000F8BD26F0FF4626F4E006363346EA035134
:103F900020460F4B0022FCF7AFFAF8BD26F0FF4693
:103FA00026F4E006204646EA0351F8BDAFF3008050
:103FB00059F3F8C21F6EA5019C7500883CE4377E5A
:103FC00000005043B03CFFFF59F3F8C29C750088D5
:103FD0000000903C2DE9F04F8DB000AF044607F192
:103FE00024008A46FA6199461EF060FC20461EF0C5
:103FF00051FC002800F0B48001460646002207F17B
:1040000024001EF075FCB861002840F0A680564BD5
:10401000002200204FF0804122F0A0FF024609F16B
:1040200004000B465044C7E90423FCF7EBF9D7E939
:10403000042304460D461046194600224B4BFCF75C
:10404000A3F802460B4620462946FCF7DBFC002875
:1040500076D130461EF08EFCC31D23F00703ADEB76
:10406000030D0546424B002200204FF0804122F014
:1040700075FF02460B46F86DC7E90423FCF7C2F949
:1040800002460B462846C7E90223FCF7CBF9374B1B
:10409000C7E900010022D7E90401FCF775F80246E0
:1040A0000B46D7E90001FCF727FA02460B46D7E991
:1040B0000201FCF7A7FCEB46002841D1FB6DB3B32E
:1040C000D7F85C80BC69012607F124001EF034FC9F
:1040D000F969524607F124001EF038FC33BA042275
:1040E00007F1200107F1240001363B621EF02EFC8F
:1040F000B9F1000F06D0B96D4A4607F1240009B1A5
:104100001EF024FC594607F124001EF029FC3B6EEA
:10411000454503EB04002A46594628BF424624F091
:1041200067F8FB6D2C44A342A8EB0508CCD807F137
:1041300024001EF0C1FBB8693437BD46BDE8F08FDE
:104140000C4B0D491B68D86823F026FA0123BB618C
:10415000B8693437BD46BDE8F08F064B0749F1E733
:10416000044B0749EEE700BF00804E400000F03FDF
:10417000000040404808002018890200F88802002A
:10418000D888020070B584B0184E304620F070FE1A
:1041900020B3174D4FF4F421296001AA304617F0DF
:1041A00073F9044660B9029BAB813168032328464A
:1041B000EB8102F067FA044648B9204604B070BDAE
:1041C0000C48452100F01AFC204604B070BD0A4896
:1041D000452100F013FC204604B070BD326807484A
:1041E000452100F00BFC4FF0FF34E6E728090020E2
:1041F0006011002058890200788902003489020089
:1042000038B5024604460D4610483D23012102F010
:104210004DFD021E00DD38BD931C10D129686A686F
:10422000AB68E868E06021606260A36029696A6940
:10423000AB69E869E06121616261A36138BDBDE8F5
:1042400038400348452100F0D9BB00BF6011002071
:104250009089020008B502463D230648012102F07C
:10426000ABFB002800DD08BDBDE808400248452141
:1042700000F0C4BB60110020C88902002DE9F04F96
:10428000B1B0BC4E0096202598460DF138090623A2
:104290000C4607469246CDF808900A4601952946F5
:1042A00018463E9EFFF796FE002840F0E580B24B90
:1042B00048220DF1780BCDE90032CDF808B029463F
:1042C00009234A460620FFF785FE002840F0CD80EE
:1042D000022130461EF02AF83D9907F120023923C9
:1042E00030461CF045FC002840F0D3803D99304614
:1042F0001CF078FC002840F0C68024225946504625
:1043000019F0B6FA27A92422404619F0B1FA24225E
:104310005946504619F0E8FA27A92422404619F0D8
:10432000E3FA3B98012206F14C0119F0C5FD10F1AA
:10433000100F00F0C880002840F0B3803B9A3A98F4
:1043400051461AF07DF910F1100F024600F0C780B7
:1043500010F10C0F00F0C88010F10A0F00F0C980B6
:10436000002840F0AB803A990122504619F08EFDAA
:1043700010F1100F00F09B80002840F0AA803B9ABB
:104380003A9841461AF05CF910F1100F00F0BC8029
:1043900010F10C0F00F0BE8010F10A0F00F0C08089
:1043A000002840F0AB803A990122404619F06EFD9A
:1043B00010F1100F7BD0002840F08B80594624224A
:1043C000504619F091FA27A92422404619F08CFA98
:1043D00006F128030193CDF80080DDE93C13524635
:1043E00030461CF0BFFD10F5994F054600F0AA803D
:1043F00010F1100F00F0AC80002840F097803C993D
:1044000030461CF0EFFB002840F096801D2306AFDD
:10441000CDE9007301223C990595304605AB1CF0AF
:1044200055FB10F59E4F024600F09E80002840F09C
:1044300096803D460FCD16AE0FC695E80F0007C615
:104440004D4633701AAF2E460FCEBE4220606160DB
:10445000A260E360354604F11004F4D107CD2B7857
:10446000237320606160A26003E04448452100F0AE
:10447000C5FA31B0BDE8F08F4148452100F0BEFAE1
:1044800031B0BDE8F08F024645213E4800F0B6FA53
:10449000EFE7024645213C4800F0B0FA31B0BDE8F4
:1044A000F08F02464521394800F0A8FAE1E7384884
:1044B0006FF00F02452100F0A1FADAE735484521F7
:1044C00000F09CFAD5E702464521334800F096FA01
:1044D000CFE702464521314800F090FAC9E730485D
:1044E000452100F08BFAC4E72E48452100F086FAFA
:1044F000BFE72D48452100F081FABAE70246452181
:104500002A4800F07BFAB4E702464521284800F02B
:1045100075FAAEE702464521264800F06FFAA8E793
:1045200002464521244800F069FAA2E702464521E7
:10453000224800F063FA9CE702464521204800F03B
:104540005DFA96E7024645211E4800F057FA90E7CB
:104550001D486FF00F02452100F050FA89E71B4813
:10456000452100F04BFA84E71948452100F046FA4E
:104570007FE700BF008A0200408A02004C8A0200E6
:10458000088A0200C48A0200848A0200248B020086
:10459000448C0200108C0200F08A02007C8C020025
:1045A000508B02008C8B0200CC8B02006C8D0200C1
:1045B000AC8C0200E88C0200288D0200308E0200D4
:1045C000708E0200A08D0200E88D0200D08E0200E5
:1045D000A88E02002DE9F047C4B0814607A88A469C
:1045E0000DF1340818F06EFF0AA818F06BFF10AF39
:1045F000404618F067FF13AE384618F063FF1CAC56
:1046000030461BF01BFB25AD20461BF017FB284650
:104610001BF022FB51460AAB07AA4846CDE90345E9
:10462000CDE90176CDF80080FFF728FE07A818F045
:104630004FFF0AA818F04CFF404618F049FF3846D3
:1046400018F046FF30461BF029FB28461BF02AFBDA
:1046500020461BF023FB44B0BDE8F08710B50948A5
:10466000442100F0CBF9002006F076FB044608B99F
:10467000204610BD02464521034800F0BFF9204600
:1046800010BD00BF108F0200288F020070B5444D8E
:10469000444888B0442100F0B1F92A46424B52F810
:1046A000270F95F821105468C3F805009068C3F8E7
:1046B0000940C3F80D00D4681069928AC3F811400C
:1046C0008909C3F81500A3F81920D97606F074FDFE
:1046D0000446002854D195F82130344E95F8222014
:1046E00095F8230095F82410327163F03F0395F894
:1046F00025207371F07095F8263033703046B17014
:10470000727004F009FB44210246294800F076F952
:10471000062142F2050005F04FF9054630B3314657
:104720000622083016F0A8F92246294642F2050072
:1047300005F030FA0446D8B91E4D1F48442100F058
:104740005DF90FCD009403AC0FC42A6822601B4BA7
:104750001B49012203A806F01DFD0446C0B91948F3
:10476000442100F04BF9204608B070BD6FF068049A
:1047700015482246452100F041F9204608B070BD99
:1047800002464521114800F039F9204608B070BDB5
:10479000024645210E4800F031F9204608B070BDB0
:1047A000981100204C8F02009001002090110020F1
:1047B000A08F020030880200A88F020078910200CA
:1047C0002801002014900200BC8F0200748F0200A8
:1047D000E88F02002DE9F04385B0FFF7D3FC0028F5
:1047E00078D13F4F3F483946FFF70AFDFFF736FFC4
:1047F0000646002860D13C483A4D20F0DBFAFA6DBD
:1048000044210446394800F0F9F8394A394844212E
:1048100000F0F4F839462022042001F0DDFB364A8E
:104820003448442100F0EAF807F12001392204203D
:1048300001F0D2FB3148442100F0E0F8B8461DE019
:104840000096C8472E48442100F0D8F8FB6D4EF67C
:10485000602000FB03F0002121F032FCD4F810901E
:104860000121002303AA20460391B9F1000F2AD0A9
:104870000096C8472348442100F0C0F82946404626
:10488000FFF7A8FE2846FFF7E5FCFFF7FFFED4F888
:1048900010904FF0050C002303AA01212046CDF80B
:1048A0000CC0B9F1000FCBD1CDF800904B4603AA54
:1048B000012120F0F7FAC5E71348452100F09EF8E2
:1048C00005B0BDE8F083CDF800904B4603AA20F078
:1048D000E9FACFE70D48452100F090F8F0E700BF76
:1048E0003001002098110020889002009090020072
:1048F000C8900200A08F0200E49002000C91020018
:104900002491020038910200649002003C90020061
:10491000B2B130B4551E0B4A0D44013911F8013FB4
:10492000584003098D42D35C83EA0010C0F303149E
:10493000C3B2105D80EA0310C0B2EFD130BC704743
:10494000704700BF7891020040B1436803F0030351
:10495000022B06D0032B04D0012B05D06FF01500DD
:1049600070470368002BF9D0002383601846704716
:104970004268816002F00302022A034604D0032A3F
:104980000BD000205860704710B5006800245C60B0
:1049900010B122F06DFA204610BD006800225A6066
:1049A000704700BF002070470B68024A013312684D
:1049B0000B601047B00100200A68AAB130B4D1E9F9
:1049C0000143A34207DA651EAB4208D05C1C8C6031
:1049D000D05430BC7047013330BC8B607047002529
:1049E0008C60D55430BC70478B6801338B60704746
:1049F000014B1860704700BFB00100200FB410B524
:104A000082B004AB002453F8042B0548009301A99D
:104A1000019400F003FE02B0BDE8104004B07047FE
:104A2000A949000070B584B004460E46002501A9CE
:104A300006480395CDE9014600F0F0FDDDE90230BE
:104A40009842B8BF255404B070BD00BFB9490000FA
:104A50000CB400B583B004AB53F8042B0193FFF7FB
:104A6000E1FF03B05DF804EB02B070472DE9F041BF
:104A70000D4607461946281D1E469046FFF778FF4B
:104A800040B104463346424629463846A446BDE86E
:104A9000F0416047BDE8F0812DE9F04F0546008BFD
:104AA00010F0080A83B040F0D28000F0070302291A
:104AB000DFF824B2CDF804A01F4640F0ED809CB290
:104AC000002B40F083802B68002B00F0838020F0C7
:104AD00007002B6940F0060080B2D3F800902883CD
:104AE000A24694460626BE425DD0A96800295AD047
:104AF00040F0080028838CF31188BFF36F8FA968FA
:104B0000C1B10F68002F38BF0027A04653464C683C
:104B100032462846A04767B13B683946002B38BF6C
:104B200000231F464C68534632462846A047002FB4
:104B3000F2D14446002C3FD1B9F1000F02D05946C2
:104B40002846C8474FF02003EFF3118C83F31188F8
:104B5000BFF36F8F2E8B26F00806B6B22E83624607
:104B6000F1063FD526F0100080B206F00706288334
:104B70003746D5F814A0BAF1000F71DB711F012977
:104B80007BD94FF00009042E4C46ACD120F0070031
:104B90002C6880B228834E46002CA4D040F0200020
:104BA00028834C469FE7002C46D040F0080028831D
:104BB0008CF31188BFF36F8F214624685346324629
:104BC0002846FFF753FF002CF6D1B5E7022C14D18D
:104BD0006C8B24B394468CF31188BFF36F8F03B0B2
:104BE000BDE8F08FB306F6D526F0200080B228830A
:104BF00006F0070700F0070361E7012CEAD12B68F4
:104C0000002BE7D02B6920F0070040F005000024BE
:104C1000D3F808902883A2469446052663E720F03F
:104C200007002B6940F0040080B2D3F80490288379
:104C3000A2469446042656E7B9F1000F2AD040F068
:104C4000080028838CF31188BFF36F8F77E7012961
:104C50000CBF40F0100040F0200028839446BAE7D3
:104C600020F00700019B2C686B6040F00100288356
:104C70002B6001264FF0000935E7019B2C686B6023
:104C8000062E2B600BD020F0070080B20026288370
:104C9000B14628E7064663E71E46944669E7002CBE
:104CA000214638BF002129B16B8B096801336B8322
:104CB0000029F8D120F0070189B26B8B41F0020086
:104CC00028834FF000090226002B7FF40CAF41F03F
:104CD0002200288307E700BFDD4C000010B40C461B
:104CE0004FF02001EFF3118281F31188BFF36F8F32
:104CF0000121446110BCFFF7CFBE00BF70B110B5F9
:104D00000C4641B1081DFFF71FFE18B9A36833F028
:104D1000030300D110BD6FF0150010BD6FF015003A
:104D2000704700BF70B169B10B685BB14B684BB1A4
:104D30000023C0E90033C0E90233C0E90533016153
:104D4000184670476FF01500704700BF70B50546F4
:104D50000E46FFF7D3FF00281DDB4FF02003EFF3D3
:104D6000118283F31188BFF36F8F6B8B298B4FF602
:104D7000FF70834201F0070429D0022C19D08B0761
:104D80000AD0062C08D0052C31D082F31188BFF34D
:104D90006F8F6FF0040070BD002333606B68EBB160
:104DA0001E606E60ECB928460221FFF775FE2046B2
:104DB00070BD01336B8382F31188BFF36F8F0023C3
:104DC000284631462246FFF751FE204670BD82F349
:104DD0001188BFF36F8F6FF00A0070BDC5E90066E0
:104DE000E0E7204682F31188BFF36F8F70BD82F336
:104DF0001188BFF36F8F6FF0850070BD10B54FF055
:104E00002001EFF3118281F31188BFF36F8F048BC0
:104E100004F00704022C0AD0012C0CBF6FF0040030
:104E20006FF0850082F31188BFF36F8F10BD418B47
:104E3000013989B2418309B12046F3E72146FFF7E2
:104E40002BFE204610BD00BF08B521F06BF90020F5
:104E500008BD00BF08B521F091F910F10B0F05D086
:104E600010F1100F08BF6FF0730008BD6FF07300F2
:104E700008BD00BF0C4608B511461A460346204639
:104E8000984721F039F903F029FD00BF10B5044619
:104E90004FF0FF324FF0FF33204620F0E7FB00F1E8
:104EA00008020028F4D04168BFF35B8F52E8003F4E
:104EB00023F0010C42E800CEBEF1000FF6D1BFF3A3
:104EC0005B8FDB0700D5884721F0A2F8E0E700BF41
:104ED00070B48468B4F5004F00EBC10320D3541ABA
:104EE00066005D685E608668891A01EB5501B6F55B
:104EF000004F4FEA410500EBC2031BD35D6085689C
:104F0000B5F5004F17D340F832408468B4F5004F30
:104F100012D321F000431A4470BC40F8321070479D
:104F20005E888D1A541A05EB560166005E804D00AE
:104F300000EBC2035D801C805B8802EB530270BCF7
:104F400020F83210704700BF8368B3F5004F30B4CB
:104F500000EBC10100EBC20411D34B6865685B082C
:104F600003EB55035D004D608168B1F5004F0DD333
:104F7000616802EB510230BC40F8323070474B8818
:104F800065885B0803EB55035D004D80618802EB8B
:104F9000510230BC20F83230704700BF8368B3F54F
:104FA000004F70B400EBC10216D253885B08B3FA0D
:104FB00083F3C3F11F0300EB83052C69002C40D061
:104FC00000EBC405AB889380D48000EBC30389B2A7
:104FD000D980A98070BC704753685B08012BF9D059
:104FE000013BB3FA83F3C3F11F0300EB83052C6984
:104FF000BCB100EBC405AB6893608668B6F5004FA2
:10500000E2D3D4608268B2F5004F00EBC303DED375
:10501000D9608368B3F5004F28BFA960DAD289B29E
:10502000D7E7C468012606FA03F31C43C46029616C
:1050300091608368B3F5004F28BFD160CAD28BB2AC
:1050400008E0C468012606FA03F31C438BB2C4606F
:105050002961938070BCD380704700BF10B484680E
:10506000B4F5004F00EBC10313D3DC68A1421FD09D
:105070009B68043200EBC30140F82240CC60826898
:1050800000EBC400B2F5004F28BF83600ED29BB284
:105090000BE0DC88A1420BD09B88043200EBC301FB
:1050A00040F8224000EBC400CC80838010BC7047E5
:1050B000C36810BC01219140043223EA010300219E
:1050C000C36040F8221070478368B3F5004F10B4F6
:1050D00000EBC1030BD25B880124E3405A1C121B76
:1050E000B2FA82F210BCC2F11F02FFF7B7BF5B68D1
:1050F0005B08012B01D00224F0E710BC704700BF11
:10510000F8B58368B3F5004F04460D464FEAC10673
:1051100000EBC10714D3796805EB510100EBC10323
:105120005B68D80736D5A159691A04EBC1035B68DF
:10513000DB0714D529462046BDE8F840FFF72EBF0F
:10514000798805EB510100EBC1039B78DA0721D583
:10515000A15B691A04EBC1035B88DB07EAD4204634
:10516000FFF7B2FFA368B3F5004F2CBFA159A15BB5
:105170002046691A2A46FFF7E7FEA368B3F5004FF9
:105180002CBFA359A35BED1A29462046BDE8F84081
:10519000FFF704BF2046FFF797FFA368B3F5004F62
:1051A0002CBF7A687A88294605EB52022046FFF721
:1051B000CBFEA368B3F5004FB5D2A15B691A04EB2F
:1051C000C1035B88C9E700BF2DE9F0418668B6F5E9
:1051D000004F27BF06F1FF3301F1FF340C46334681
:1051E000B4FA84F4B3FA83F3C3F11F03C4F11F02CA
:1051F000934223DB00EB8208D8F810E0BEF1000FE9
:1052000013D075460323B6F5004F00EBC50C19D338
:10521000DCF80470B1EB570F23D9DCF80C50C8F858
:105220001050013B01D0AE45EDD1C368C4F120045C
:105230004FF0FF3202FA04F41C400BD1002528463F
:10524000BDE8F081BCF80270B1EB570F09D9BCF88A
:105250000650E4E794FAA4F2B2FA82F2131D50F871
:1052600023502946FFF7FAFE2846BDE8F08100BF2B
:10527000E1B100688368B3F5004F0BD20439091A15
:1052800021F007030344C9085A8822F001025A801A
:10529000FFF736BF0839091A21F007030344C9088C
:1052A0005A6822F001025A60FFF72ABF704700BF18
:1052B000F8B5056891B3AB68B3EBD10F2ED9B3F550
:1052C000004F01F107012CBF082404240C44E4081A
:1052D00021462846FFF778FF00B3AB68B3F5004FCF
:1052E0004FEAC00605EBC0070FD37B68B4EB530F42
:1052F00016D343F001037B60AB68B3F5004F2CBFBE
:105300000820042030442844F8BD7B88B4EB530FB8
:1053100006D343F001037B800420F3E70020F8BDAF
:105320000444014622462846FFF7D2FD2146FFF7F6
:1053300035FEAB68B3F5004F01D27B88E9E77B68A7
:10534000D7E700BF2DE9F0410668B368B3F5004F19
:105350000D462CBF082104218D42144643D9002A52
:105360003DD0B3EBD20F3AD9D11D2944C9083046FC
:10537000FFF72AFF074690B3B368B3F5004F34BF79
:105380000421082101EBC00105F1FF323144114431
:10539000C5F1000505EA01052C4434BF6FF0030197
:1053A0006FF0070107342944891B24F00704A41B6C
:1053B000B0EBD10F4FEAE4044FEAD10823D3B3F5A1
:1053C000004F06EBC80713D37B6808EB53029442E7
:1053D00023D343F001037B602846BDE8F08100251C
:1053E0002846BDE8F081BDE8F0411146FFF760BFF7
:1053F0007B8808EB530294420FD343F001037B8078
:105400002846BDE8F081014642463046FFF760FD80
:105410003946FFF7C3FDB368D1E74146224630461F
:10542000FFF756FD2146FFF7B9FDB368B3F5004F0E
:1054300001D27B88E1E77B68CBE700BFB2F5802F24
:105440002DE9F0032CBF08240424141B0C4407315D
:1054500021F0070224F00704A41AE7084FF000081F
:105460004FF000090023B7F5004F0260C2E9008940
:10547000C2E902733DD2B7FA87F5C5F1240189006C
:105480000731D5F120054FEAD1013DD000231E465A
:1054900002F10C000133AB4240F8046FFADBB7F5C0
:1054A000004F4FEA410330D37F1A02EBC10043F0B3
:1054B00001037D00536045609368B3F5004F2CD322
:1054C00042F831109068B0F5004F02EB040326D388
:1054D0005E609068B0F5004F23D317519068B0F527
:1054E000004F1FD301205860BDE8F0031046FFF7BE
:1054F00055BD7D1EB5FA85F5C5F12401890007313A
:10550000C908C5F12005C1E74B007F1A02EBC100B5
:1055100043F001037D005380458001801319002072
:1055200058801F80588840F001005880BDE8F00383
:105530001046FFF733BD00BF2DE9F04F364C9346C0
:10554000D27883B012F804A00C9E6F2A04460D4650
:105550001F460AF0030A43D039D902F0F702702A35
:1055600037D00A234FF00A084FF0000901930AE0F0
:105570004D45DAB208BF444506F8012D19D3BE42A5
:1055800017D904460D4642464B4620462946FBF7AE
:105590004DFA092A02F13003EAD9BAF1010F0CBF22
:1055A000373257324D45D2B208BF444506F8012D77
:1055B000E5D29BF800309B0605D5019B082B20D037
:1055C000019B102B13D0304603B0BDE8F08F582A52
:1055D000C7D110234FF010084FF000090193D2E714
:1055E00008234FF008084FF000090193CBE79BF820
:1055F0000230304643F010038BF8023003B0BDE8B0
:10560000F08F9BF80230304643F008038BF80230ED
:1056100003B0BDE8F08F00BF95E602002DE9F04F22
:10562000834693B01078039398B190460C464FF0A0
:1056300000095D4625280FD02146A847002808DB31
:1056400008F1010809F1010998F800000028F1D1DA
:10565000484613B0BDE8F08F98F801300022252BA2
:10566000CDE90C22CDE90E221192109200F0E380D8
:10567000164610469446964608F10107A3F120010C
:1056800010290AD8DFE801F0CF0909CD0909090975
:10569000090909D109D40909C900BEF1000F05D0D3
:1056A0009DF8381041F004018DF83810BCF1000F5E
:1056B00005D09DF8381041F008018DF8381028B158
:1056C0009DF8381041F010018DF838102EB19DF87A
:1056D000381041F020018DF838102AB19DF838209B
:1056E00042F040028DF838209DF8382002F0440145
:1056F000442900F07B819DF838202A2B42F080025B
:105700008DF8382000F08081994EF25C52071946DE
:10571000384648BF002217D510F8013F16F803C0DD
:1057200002EB820201EB42021CF0040FA2F13002F4
:105730001946F1D1B84207D09DF838100F92D20F18
:1057400062F341018DF838109DF839202E2B0CBFE3
:105750000121002161F341028DF8392027D14378DE
:105760002A2B00F1010700F0DD83814EF25C12F07C
:105770000402194618BF002200F0F88317F8013F11
:10578000F05C02EB820201EB42024007A2F1300220
:105790001946F3D43846D10F9DF838601092C6F3FD
:1057A00040021143324661F341028DF83820A3F1E3
:1057B0004C022E2A00F26381DFE812F096026101AA
:1057C00061016101610161016101610161016101C9
:1057D00061016101610161016101610161016101B9
:1057E00061016101610161016101610161016101A9
:1057F00061016101C3026101BD026101AC0261018D
:10580000610161016101610161016101A602610142
:1058100061016101610161018802012217F8013F04
:105820002CE70126FAE70120F8E74FF0010CF5E735
:105830004FF0010EF2E78DF83B00114613469446F7
:10584000174608F1020B9DF938009DF838A0002892
:10585000B4BF0F9E4FF0FF360398BCF1000F00F06D
:10586000A38050F8047B0597002F08DA9DF8397063
:105870006FF341078DF839704FF0FF370597002718
:105880000129CDE90F777ED0022968D0042900F0E4
:10589000B280032900F0408303901AF0030F40F018
:1058A0008A809DF83B20253A532A56D8DFE812F02B
:1058B000870255005500550055005500550055000C
:1058C0005500550055005500550055005500550030
:1058D0005500550055005500550055005500550020
:1058E0005500550055005500550055005500550010
:1058F0005500550055005500550055005500550000
:1059000055005500550055005500550055005500EF
:1059100055005500550076015500550055005500BD
:10592000550055005500550055005500A502F601DB
:105930005500550055005500F6015500550055001D
:105940005500910276017C02550055006B0255000E
:105950007601550055007601D146D84674E6D91E29
:1059600004297AD8DFE801F072060679790000BFD1
:1059700095E60200073020F00702F2E80201CDE9C7
:105980000C01039289E7D91E04294ED801A757F8C4
:1059900021F000BF1B5A0000755900007559000026
:1059A0002B5A00002B5A0000BF074CBF109F4FF02E
:1059B000FF37059763E700265F4608E098F8000088
:1059C000A847002808F10108FFF643AE0136B845A4
:1059D0002146F3D31FB998F800000028F0D1002E1B
:1059E0003046FFF636AEB144B8462DE66FF3861268
:1059F0008DF838207FE6073020F00702F2E8020138
:105A0000CDE90C01039248E79DF8393043F00103DA
:105A10008DF839307B78781C96E6024652F8040BF4
:105A20000392C117CDE90C0137E70146012A51F86D
:105A3000040B03914FEAE071CDE90C0140F07E8246
:105A40009DF830200021CDE90C2126E750F8041BF9
:105A500003900022CDE90C121FE70746002157F8FA
:105A6000040B0397012ACDE90C01E9D0022A7FF447
:105A700014AFBDF830200021CDE90C210DE79DF8D1
:105A80003860C6F34006A3F1410200F1010B8DF826
:105A90003B30372A39D8DFE812F05A003800380096
:105AA00038005A005A005A003800380038003800D0
:105AB0003800380038003800380038003800380026
:105AC00038003800380038006600380038003800E8
:105AD000380038003800380038005A0038006600B6
