:1000000000B60020E5860000498600001587000044
:10001000158700001587000015870000000000000C
:10002000000000000000000000000000118400003B
:100030001587000000000000BD830000F57300007C
:10004000A5860000ED810100A5860000A5860000C0
:10005000A5860000A5860000A5860000A5860000F4
:10006000A5860000A5860000A5860000A5860000E4
:10007000A5860000A5860000A5860000A5860000D4
:10008000A5860000A5860000A5860000A5860000C4
:10009000A5860000A5860000A5860000A5860000B4
:1000A000A5860000A5860000A5860000A5860000A4
:1000B000A5860000A5860000A5860000A586000094
:1000C000A5860000A5860000A5860000A586000084
:1000D000A5860000A5860000A5860000A586000074
:1000E000A5860000A5860000A5860000A586000064
:1000F000A5860000A5860000A5860000A586000054
:1001000001F0FF01102A2BDB10F0070F08D010F8C8
:10011000013B013A8B422DD010F0070F42B3F6D1CC
:10012000F0B441EA012141EA014122F007047FF0E5
:1001300000070023F0E80256083C85EA010586EA3C
:10014000010685FA47F5A3FA87F586FA47F6A5FA78
:1001500087F68EB9EED1F0BC01F0FF0102F0070284
:1001600032B110F8013B013A83EA010313B1F8D12F
:100170000020704701387047002D06BF3546033810
:10018000073815F0010F07D1013015F4807F02BF49
:10019000013015F4C03F0130F0BC0138704700BF9A
:1001A00081F0004102E000BF83F0004330B54FEA28
:1001B00041044FEA430594EA050F08BF90EA020F95
:1001C0001FBF54EA000C55EA020C7FEA645C7FEA28
:1001D000655C00F0E2804FEA5454D4EB5555B8BF4B
:1001E0006D420CDD2C4480EA020281EA030382EABC
:1001F000000083EA010180EA020281EA0303362D4E
:1002000088BF30BD11F0004F4FEA01314FF4801C20
:100210004CEA113102D0404261EB410113F0004F32
:100220004FEA03334CEA133302D0524263EB4303E9
:1002300094EA050F00F0A780A4F10104D5F1200E87
:100240000DDB02FA0EFC22FA05F2801841F10001E2
:1002500003FA0EF2801843FA05F359410EE0A5F1B6
:1002600020050EF1200E012A03FA0EFC28BF4CF0E7
:10027000020C43FA05F3C01851EBE37101F000459D
:1002800007D54FF0000EDCF1000C7EEB00006EEBAA
:100290000101B1F5801F1BD3B1F5001F0CD3490834
:1002A0005FEA30004FEA3C0C04F101044FEA44528B
:1002B00012F5800F80F09A80BCF1004F08BF5FEA12
:1002C000500C50F1000041EB045141EA050130BDF2
:1002D0005FEA4C0C404141EB0101013C28BFB1F504
:1002E000801FE9D291F0000F04BF01460020B1FA4F
:1002F00081F308BF2033A3F10B03B3F120020CDA22
:100300000C3208DD02F1140CC2F10C0201FA0CF0FF
:1003100021FA02F10CE002F11402D8BFC2F1200C64
:1003200001FA02F120FA0CFCDCBF41EA0C0190401A
:10033000E41AA2BF01EB0451294330BD6FEA040463
:100340001F3C1CDA0C340EDC04F11404C4F120024E
:1003500020FA04F001FA02F340EA030021FA04F360
:1003600045EA030130BDC4F10C04C4F1200220FAB7
:1003700002F001FA04F340EA0300294630BD21FAF5
:1003800004F0294630BD94F0000F83F4801306BFBB
:1003900081F480110134013D4EE77FEA645C18BFAF
:1003A0007FEA655C29D094EA050F08BF90EA020F46
:1003B00005D054EA000C04BF1946104630BD91EA3E
:1003C000030F1EBF0021002030BD5FEA545C05D141
:1003D0004000494128BF41F0004130BD14F5800480
:1003E0003CBF01F5801130BD01F0004545F0FE41F4
:1003F00041F470014FF0000030BD7FEA645C1ABF29
:10040000194610467FEA655C1CBF0B46024650EA5F
:10041000013406BF52EA033591EA030F41F400218B
:1004200030BD00BF90F0000F04BF0021704730B511
:100430004FF4806404F132044FF000054FF00001E6
:1004400050E700BF90F0000F04BF0021704730B5A7
:100450004FF4806404F1320410F0004548BF40427C
:100460004FF000013EE700BF42004FEAE2014FEAD1
:1004700031014FEA02701FBF12F07F4393F07F4FAC
:1004800081F06051704732F07F4208BF704793F0AF
:100490007F4F04BF41F40021704730B54FF46074C2
:1004A00001F0004521F000411CE700BF50EA0102C5
:1004B00008BF704730B54FF000050AE050EA01026E
:1004C00008BF704730B511F0004502D5404261EBDE
:1004D00041014FF4806404F132045FEA915C3FF41F
:1004E000D8AE4FF003025FEADC0C18BF03325FEABC
:1004F000DC0C18BF033202EBDC02C2F1200300FA6D
:1005000003FC20FA02F001FA03FE40EA0E0021FA91
:1005100002F11444BDE600BF70B54FF0FF0C4CF47F
:10052000E06C1CEA11541DBF1CEA135594EA0C0F31
:1005300095EA0C0F00F0DEF82C4481EA030621EA6C
:100540004C5123EA4C5350EA013518BF52EA0335A7
:1005500041F4801143F4801338D0A0FB02CE4FF059
:100560000005E1FB02E506F00042E0FB03E54FF089
:100570000006E1FB03569CF0000F18BF4EF0010E81
:10058000A4F1FF04B6F5007F64F5407404D25FEA7D
:100590004E0E6D4146EB060642EAC62141EA555130
:1005A0004FEAC52040EA5E504FEACE2EB4F1FD0C72
:1005B00088BFBCF5E06F1ED8BEF1004F08BF5FEAF0
:1005C000500E50F1000041EB045170BD06F00046A2
:1005D00046EA010140EA020081EA0301B4EB5C044F
:1005E000C2BFD4EB0C0541EA045170BD41F4801147
:1005F0004FF0000E013C00F3AB8014F1360FDEBF6C
:10060000002001F0004170BDC4F10004203C35DA47
:100610000C341BDC04F11404C4F1200500FA05F3CA
:1006200020FA04F001FA05F240EA020001F000426B
:1006300021F0004110EBD37021FA04F642EB0601E1
:100640005EEA430E08BF20EAD37070BDC4F10C040B
:10065000C4F1200500FA04F320FA05F001FA04F2CF
:1006600040EA020001F0004110EBD37041F10001BB
:100670005EEA430E08BF20EAD37070BDC4F12005C6
:1006800000FA05F24EEA020E20FA04F301FA05F22E
:1006900043EA020321FA04F001F0004121FA04F2D6
:1006A00020EA020000EBD3705EEA430E08BF20EAA6
:1006B000D37070BD94F0000F0FD101F000464000E0
:1006C00041EB010111F4801F08BF013CF7D041EA62
:1006D000060195F0000F18BF704703F00046520066
:1006E00043EB030313F4801F08BF013DF7D043EA37
:1006F0000603704794EA0C0F0CEA135518BF95EAED
:100700000C0F0CD050EA410618BF52EA4306D1D173
:1007100081EA030101F000414FF0000070BD50EA92
:10072000410606BF1046194652EA430619D094EA1C
:100730000C0F02D150EA013613D195EA0C0F05D106
:1007400052EA03361CBF104619460AD181EA03015A
:1007500001F0004141F0FE4141F470014FF0000012
:1007600070BD41F0FE4141F4780170BD70B54FF0AD
:10077000FF0C4CF4E06C1CEA11541DBF1CEA13552D
:1007800094EA0C0F95EA0C0F00F0A7F8A4EB05040F
:1007900081EA030E52EA03354FEA013100F0888006
:1007A0004FEA03334FF0805545EA131343EA1263CF
:1007B0004FEA022245EA111545EA10654FEA002684
:1007C0000EF000419D4208BF964244F1FD0404F53D
:1007D000407402D25B084FEA3202B61A65EB030599
:1007E0005B084FEA32024FF480104FF4002CB6EB56
:1007F000020E75EB030E22BFB61A754640EA0C00D6
:100800005B084FEA3202B6EB020E75EB030E22BF15
:10081000B61A754640EA5C005B084FEA3202B6EB56
:10082000020E75EB030E22BFB61A754640EA9C0015
:100830005B084FEA3202B6EB020E75EB030E22BFE5
:10084000B61A754640EADC0055EA060E18D04FEAA3
:10085000051545EA16754FEA06164FEAC30343EA43
:1008600052734FEAC2025FEA1C1CC0D111F4801F10
:100870000BD141EA00014FF000004FF0004CB6E709
:1008800011F4801F04BF01430020B4F1FD0C88BFA8
:10089000BCF5E06F3FF6AFAEB5EB030C04BFB6EBB3
:1008A000020C5FEA500C50F1000041EB045170BDA6
:1008B0000EF0004E4EEA113114EB5C04C2BFD4EBD3
:1008C0000C0541EA045170BD41F480114FF0000E57
:1008D000013C90E645EA060E8DE60CEA135594EAD3
:1008E0000C0F08BF95EA0C0F3FF43BAF94EA0C0FD6
:1008F0000AD150EA01347FF434AF95EA0C0F7FF44B
:1009000025AF104619462CE795EA0C0F06D152EA9E
:1009100003353FF4FDAE1046194622E750EA410682
:1009200018BF52EA43067FF4C5AE50EA41047FF493
:100930000DAF52EA43057FF4EBAE12E74FF0FF3CF8
:1009400006E000BF4FF0010C02E000BF4FF0010CC9
:100950004DF804CD4FEA410C7FEA6C5C4FEA430C42
:1009600018BF7FEA6C5C1BD001B050EA410C0CBF91
:1009700052EA430C91EA030F02BF90EA020F0020F3
:10098000704710F1000F91EA030F58BF994208BF5A
:1009900090422CBFD8176FEAE37040F00100704717
:1009A0004FEA410C7FEA6C5C02D150EA013C07D16E
:1009B0004FEA430C7FEA6C5CD6D152EA033CD3D0B9
:1009C0005DF8040B704700BF8446104662468C46B3
:1009D0001946634600E000BF01B5FFF7B7FF0028E6
:1009E00048BF10F1000F01BD4DF808EDFFF7F4FF0F
:1009F0000CBF012000205DF808FB00BF4DF808ED9A
:100A0000FFF7EAFF34BF012000205DF808FB00BFBC
:100A10004DF808EDFFF7E0FF94BF012000205DF8DE
:100A200008FB00BF4DF808EDFFF7CEFF94BF012093
:100A300000205DF808FB00BF4DF808EDFFF7C4FF8C
:100A400034BF012000205DF808FB00BF53B94AB94C
:100A5000002908BF00281CBF4FF0FF314FF0FF30C6
:100A600000F06CB9ADF1080C6DE904CE00F006F8A9
:100A7000DDF804E0DDE9022304B070472DE9F0471A
:100A8000089E0D4604468E46002B40F082808A4226
:100A9000174646D9B2FA82F24AB1C2F1200105FAEC
:100AA00002F320FA01F1974041EA030E94404FEA25
:100AB0001748230CBEFBF8FCB9B208FB1CEE43EA56
:100AC0000E430CFB01F098420AD9FB180CF1FF35DC
:100AD00080F01681984240F21381ACF1020C3B4445
:100AE0001B1AA4B2B3FBF8F008FB103344EA03442A
:100AF00000FB01F1A14209D93C1900F1FF3380F05C
:100B00000181A14240F2FE8002383C44641A40EA6E
:100B10000C4000211EB1D4400023C6E90043BDE8CB
:100B2000F08702B9FFDEB2FA82F2002A4FD1CB1B66
:100B30004FEA174E1FFA87F80121B3FBFEFC250C84
:100B40000EFB1C3345EA034508FB0CF3AB4207D907
:100B50007D190CF1FF3002D2AB4200F2E7808446EF
:100B6000ED1AA3B2B5FBFEF00EFB105543EA0544A7
:100B700008FB00F8A04507D93C1900F1FF3302D269
:100B8000A04500F2D7801846A4EB080440EA0C40C8
:100B9000C0E78B4208D9002E00F0AF800021C6E9E3
:100BA00000050846BDE8F087B3FA83F100294BD170
:100BB000AB4202D3824200F2B780841A65EB030392
:100BC00001209E46002EAAD0C6E9004EA7E7C2F13A
:100BD000200C01FA02F3974020FA0CF04FEA174E6E
:100BE00021FA0CFC1843BCFBFEF1050C0EFB11CCEA
:100BF0001FFA87F845EA0C4501FB08F3AB4204FAFB
:100C000002F409D97D1901F1FF3C80F08B80AB42E1
:100C100040F2888002393D44EB1A85B2B3FBFEF006
:100C20000EFB103345EA034500FB08F3AB4207D93E
:100C30007D1900F1FF3C71D2AB426FD902383D44BF
:100C4000EB1A40EA014178E7C1F1200C8B4022FA0F
:100C50000CF71F4320FA0CF405FA01F34FEA174E84
:100C600025FA0CF51C43230CB5FBFEF91FFA87F897
:100C70000EFB195543EA054509FB08FAAA4502FA95
:100C800001F200FA01F308D97D1909F1FF3047D2CA
:100C9000AA4545D9A9F102093D44A5EB0A05A4B22C
:100CA000B5FBFEF00EFB105544EA054400FB08F8C6
:100CB000A04507D93C1900F1FF352DD2A0452BD90D
:100CC00002383C4440EA0940A4EB0804A0FB028936
:100CD0004C45C6464D4619D316D05EB1B3EB0E0255
:100CE00064EB050404FA0CFCCA404CEA0202CC4056
:100CF000C6E900240021BDE8F087314630460EE702
:100D0000AC46EDE6184601E74345E6D2B8EB020EE5
:100D100069EB07050138E0E72846D3E760468FE72F
:100D20008146BAE7614677E708464BE7ACF1020C2B
:100D30003D4415E702383C4426E700BF704700BF3A
:100D40004FEA410C7FEA6C5C02D150EA013C0AD1C7
:100D50004FEA430C7FEA6C5C02D152EA033C02D1B9
:100D60004FF0000070474FF00100704710F8012B62
:100D700011F8013B012A28BF9A42F7D0D01A7047D8
:100D8000034613F8012B002AFBD1181A01387047CB
:100D90002DE9F041D0E90BC7D0F828800CEB07040F
:100DA0003034A0450E46154618D81B4F18A3D3E97A
:100DB0000023ACFB0701FFF749FEA4EB080420F079
:100DC0007F40306012A3D3E90023A4FB0701FFF7A3
:100DD0003DFE20F07F402860BDE8F0810E4C0CA362
:100DE000D3E90023A8FB0401FFF730FE20F07F4386
:100DF00007F130003360A0FB040105A3D3E9002311
:100E0000FFF724FE20F07F402860BDE8F08100BF9E
:100E10008D49FD1A0700000000CA9A3B000000003F
:100E20002DE9F04FAB4C8FB0002800F05B8194F8B7
:100E30004E6016F0010636D194F8392094F82D3022
:100E400094F8290004EB820204EB830300F0030012
:100E5000FF21D2F83C90D3F8308084F82A1016F0A5
:100E6000ABFC94F84E00420700F11581B8F1000F79
:100E700011D09848414612F089FF98F800305B067F
:100E800005D506210EF01AFB002800F03C8291489F
:100E9000494612F07BFF98F8003013F00E0F40F037
:100EA000D180636A23B10C2630460FB0BDE8F08FC5
:100EB00012F00EF98246002800F0418212F014F977
:100EC0008346002800F0538213F04CFB05460028AF
:100ED00000F04A824FF6FF73806FAB8505F11C036B
:100EE0000B93002800F0278205F16C0205F16801E0
:100EF0000EF0F0FAB5F8642095F83D1095F8DC7026
:100F000095F840C095F82601734B2B6622F4EF62EA
:100F100022F0070242F4887242F0010201F03F0120
:100F200027F0030E61F07F010027A5F864204FF041
:100F30001B1220F0030085F83D1067F3000C06211A
:100F4000EA65664A85F8DCE085F840C085F8260148
:100F5000A5F8C410C5F81C21C5E91377C5F830A160
:100F600085F83F706F866F636F65A5F8C870A5F848
:100F7000CC70A5F8E87085F8EA70C5F80071A5F89E
:100F80000471A5F81871C5F82071A5F8247185F8C9
:100F90002F71AF67A5F87C7095F872C195F89A012A
:100FA00095F87E1095F85221A5F8507167F3041C4E
:100FB00021F01F0122F0070267F3C30085F872C118
:100FC00085F87E1085F85221A5F87071A5F8987102
:100FD000A5F8A47185F89A0113F0F6FDA5F8D600DE
:100FE00013F0F8FDD5F8A8113D4AA5F8D8000A403D
:100FF000C5F8A82113F0F4FD95F8AC2160F30202C6
:1010000085F8AC2113F0F2FDC4E911AB0B9B6362D0
:1010100095F8AC2195F82030C5F8C07160F3C50291
:1010200067F30003C5E96E77C5E96C77C5E9057715
:10103000ED6185F8AC2185F8203017F0B7FC002869
:1010400040F0638194F828300121C3F342030DA8D6
:101050008DF834300EF0B2FB88B398F8003003F00E
:101060000F03022B00F09C80012B00F0528199F8B5
:1010700001201032D200002B40F03D8198F8011081
:101080001031C90001F54D73134401F59A7201380E
:1010900002FB003090E0C0F3C000324604F14F0183
:1010A00016F0D0FCFF2884F82A003FF4DFAE30466B
:1010B00016F09CFBB8F1000F7FF4DBAEEBE6636A41
:1010C000002B3FF4F0AE12F007FC0C2630460FB0B8
:1010D000BDE8F08FB4610020480148017F4901005C
:1010E0000000FFF694F84E30D8077FF5DCAE2046BE
:1010F00012F0BEF884420BD0A749A84840F296727D
:1011000003F0F4FC404080F311884FF0030002DF4D
:1011100094F82830D9070DAD0ED502220D92032187
:101120009F4B0095012200200FF042FD294612F04E
:101130007BF8002840F0208102220321984B009583
:1011400000200D920FF034FD294612F06DF80028B2
:1011500040F0F780934812F0C7F8002840F0DE8096
:10116000914812F091F884420BD08B498B484FF490
:10117000F76203F0BBFC404080F311884FF003009E
:1011800002DF636A0BB112F0A7FB94F84E30002621
:101190006FF30003304684F84E300FB0BDE8F08F97
:1011A00098F801301033DB0000FB03F303F5AA735A
:1011B0000138642202FB003094F820307B49E4615E
:1011C000002565F30003312284F820302260C4E951
:1011D00005556FA3D3E90023C4E90155A0FB010124
:1011E000FFF734FCB4F84C90E0600FF027FD0746A1
:1011F000B9F1000F08D198F8005005F00F05A5F1DE
:101200000105B5FA85F56D0994F8280065F300002D
:1012100010F0010584F828003ED0DFF88491E368DF
:1012200063490493002002250DF1300801930591D4
:10123000CDE907980321CDE9020006942A460090E3
:101240003B460C950FF02CFC414611F0EDFF0028B9
:101250007FF435AF574905914AF2D8320092CDE973
:101260000798CDE90300CDE9010006943B46012231
:1012700003210C950FF014FC414611F0D5FF002816
:101280007FF41DAF94F84E30304643F0010384F8EC
:101290004E300FB0BDE8F08F4748E268474BDFF8AB
:1012A00000E10694A9FB00014FF0910C0CFB091121
:1012B00002F2471CC3F800C004923D4A09934FF064
:1012C00002094FF6FF7C05920DF1300830A3D3E9F7
:1012D0000023CDE907E80295CDF83090CDF80CC099
:1012E000FFF7B4FB4A46CDE900503B4628460321B0
:1012F0000FF080FBC0E7062B3FF4C0AE4FF4DA726C
:101300004FF41B73C3E61226CEE512F0E5FA03266E
:10131000CAE54FF4F2724FF47F73B8E61E491F48D6
:1013200040F2B57203F0E2FB404080F311884FF0C9
:10133000030002DF14E705F17000A867D4E5072673
:10134000B2E5194811F0A0FF84423FF4ACAD40F281
:10135000AF721149114803F0C9FB404080F3118876
:101360004FF0030002DF9EE5584611F0C3FE5046E1
:1013700011F0B4FE072697E50B4811F085FF844273
:101380003FF491AD40F2A172E3E700BFAFF30080FC
:101390008D49FD1A07000000F0C802000CB60200DB
:1013A00081210100D0610020B461002000CA9A3B75
:1013B000D93501005D380100002AE7840C62002065
:1013C0002DE9F04F044690F8E93090F8E8008342A8
:1013D0008DB00D4616460ED0C01A00F0030002284C
:1013E0001BD094F82D2194F82C319A4230D1002052
:1013F0000DB0BDE8F08F94F8522112F00108F0D141
:1014000094F805C194F80411614500F07A83981EA0
:10141000012284F8E90084F8EA2094F8983194F8DD
:1014200099219A4206D094F89A2102F006010429E3
:1014300000F0AA8394F8EA707A1E052A00F2548319
:10144000DFE812F05C00EC026E0252031503C001EB
:1014500029480DF0EBFF58B394F82C3184F82D3166
:101460000379022243F0030342710371C271D4F87D
:10147000B03194F82E2102722BB394F852219107C7
:1014800021D494F8AB21D2071DD4D4F8BC219342C7
:1014900004BF1A68C4F8BC21D4F8B421B2B91A68E0
:1014A000026018600368C4E96D000BB9C4F8C0019C
:1014B000B4F8CC0000289AD1B4F8C630012B0ED96C
:1014C000A4F8CC3093E7D4F8B42172B1D4F8B83191
:1014D0001A68026018600368C4F8B801E5E70133D0
:1014E000A4F8CC300DB0BDE8F08F0360C4E96C0007
:1014F000C4F8B801D9E700BF78640020A64F3B6864
:10150000002B00F00085B4F83680628E94F8063126
:101510009044B04413F003031FFA88F840F0CB83E3
:10152000B4F8EC90A8EB09021FFA82FA12043FF516
:1015300058AF94F8701194F8712194F8040184F86C
:1015400005018A4294F8E80084F8E90009D094F88B
:10155000722102F00702052A04BF84F87111A4F871
:10156000CC303B689C4204BF00233B60D4F8007140
:10157000002F00F097853868002800F09385B4F8B4
:101580000831E18D4268B4F80AC1C4F800218B42E9
:1015900000F0DA86B4F80CE1A28DFA801521002261
:1015A000FB83A7F820C0A7F822E039713A773946C3
:1015B00011F0A6FD11F0AEFD2368002B09DAD4E985
:1015C000011223F000438A422CBFA9186918236036
:1015D000CD1AE38DB4F8087113FB0AF39BB2B3FB89
:1015E000F7F117FB01F292B293421FFA81FB80F0F0
:1015F0004785D31A694840F2E24202FB03F3A3FB9A
:10160000000163A3D3E90023FFF720FA20F07F4015
:101610000544628E94F93D30A9EB0808D844324461
:10162000904440F2E249002BA4F8328009FB07F70E
:10163000C0F247855A495B4840F6871203F056FAD4
:10164000404080F311884FF0030002DF4FF00008A4
:101650003E46B4F80C21B4F80A11534B5348218686
:1016600042F2107C0CFB02723B443844B3FBF7F3AC
:1016700001F1060C013AB2FBF7F2B0FBF7F798B2B2
:10168000A4F8C6206045B4F80821A4F8D200A4F854
:10169000CA70E28502DD401A063880B294F806313D
:1016A000A4F8CE005B0744BF0023A4F8C830022191
:1016B000012019F093F900220221814601200DF04A
:1016C00057FF3B494FF4E47220460DF0E3FEC21C85
:1016D0005FFA82FA374B00945246012100200FF046
:1016E00067FA30F002030BD02D492E4840F6B612AF
:1016F00003F0FCF9404080F311884FF0030002DF53
:10170000264BA6FB0367304621A3D3E900233946C5
:10171000FFF79CF9284AE368049320F07F4BABFB6A
:101720000223072000FB0B33B01A67EB0301089478
:1017300006944FF47A720023204F214E07974FF6FC
:10174000FE7405960394FFF781F92B46CDE901B0AD
:10175000CDF800805246012100200FF0A1F930F0B1
:1017600002030BD00E490F484FF41D6203F0BEF97F
:10177000404080F311884FF0030002DFB9F1000F01
:1017800040F0FD856FF08B0032E600BFAFF30080C4
:101790008D49FD1A07000000F463002000CA9A3B3F
:1017A00040C902000CB602007FC3C901FF596202A2
:1017B0002C620020994101008D49FD1A4D41010024
:1017C00031710100E28E638E94F8EC501A44324479
:1017D000EF0796B2AB4600F1DC82B4F8EE20B61A01
:1017E00037043FF5FEAD94F8DC2094F8648094F85B
:1017F00065A094F8E810B4F8627084F8E910D60790
:1018000008F007080AF0070A40F1C285D4F81C2145
:10181000100540F1BD85B4F8D890B9F5296F28BFFF
:101820004FF42969B9F5A47F4FF4296338BF4FF409
:10183000A4790B9315F01C0F40F02986B4F8606072
:1018400015F0E00F0CD094F8652094F85E0069095B
:1018500061F3020284F865200B9A12F00FFB074631
:10186000D4F80051002D00F0F9862868002800F017
:10187000F586426894F86430C4F800211BF0020F2A
:1018800040F0AF8794F8652003F00703984502F015
:10189000070201F08580A18DE9804FF0190C00212D
:1018A00029776B77AA7785F804C0294611F028FCC0
:1018B000D4F80051002D00F0ED862868002800F0D3
:1018C000E986B4F860304268C4F80021B34209D315
:1018D0004B4507D8B4F86230BB4203D30B9A93420E
:1018E00041F27280A4F86060A4F862702B7FA28D30
:1018F000EA8043F003030321092229712B776A77D9
:10190000B4F85E30B4F85C202B841523AA84EB77FE
:1019100029466F84EE8411F0F3FB11F0FBFB60E5C8
:1019200094F8EC2012F0030500F08E8294F93D301B
:10193000002BBFF656AD012D7FF453ADB4480DF02A
:1019400075FD064600283FF44CAD0379042243F0B0
:1019500003030D2100F1080503714171C2710C21CF
:10196000284616F04BFEB368F268C4F8FA20C4F8B3
:10197000F630D4F8B0313269C4F89C20002B00F066
:10198000098794F85221920700F1048794F8AB215B
:10199000D70700F1FF86D4F8BC21934204BF1A6830
:1019A000C4F8BC21D4F8B421002A01F06781D4F82E
:1019B000B8311A6832601E603368C4F8B861002B11
:1019C00001F0048111F0CAFB014600283FF409AD83
:1019D0000B7FA28DCA8043F00303032217204877B0
:1019E0000B770A71CA77D4F85921D4F855310B62B4
:1019F0004A6294F8533181F8283094F8543181F8D0
:101A00002930086811F07CFB11F084FB94F8EC306D
:101A1000022262F3010384F8EC30E2E4E28E618E8C
:101A200094F8EC300A443244DF0796B200F1F680B5
:101A3000B4F8F220B61A31043FF5D3AC94F8E8308C
:101A400084F8E930234604F1380053F8ED2FA263FF
:101A50001B79037105210DF0B1FE94F83D30012290
:101A600060F3050384F83D3084F8C421B9E4684884
:101A70000DF0DCFC00283FF4B4AC94F8E83084F8B6
:101A8000E930012302794371D4F8B03142F0030206
:101A900012210271C171002B00F0E78294F85221EB
:101AA000910700F1E28294F8AB21D20700F1DD82C8
:101AB000D4F8BC21934204BF1A68C4F8BC21D4F8FE
:101AC000B421002A01F09780D4F8B8311A68026076
:101AD00018600368C4F8B801002B00F0C684B4F89D
:101AE000CA30A4F8CC307CE44A494B484FF47872B1
:101AF00002F0FCFF404080F311884FF0030002DF4A
:101B00006FE494F8191194F81871B94252D194F80D
:101B1000251194F82471B94200F02583C91BC90727
:101B20007FF55FAC94F82631DA0740F186879A0793
:101B300040F1718711F012FB014600B394F8243193
:101B400084F82531037FA28DC28043F003030B7715
:101B5000032006220C2308714A77CB7794F82701DB
:101B6000B4F82821B4F82A31A1F8233081F82000F4
:101B7000A1F82120086811F0C3FA11F0CBFA94F80B
:101B8000E80094F8E93027E402F00701062901F2A1
:101B9000EC8101A050F821F0991F000035140000DD
:101BA0003514000035140000151F0000151F00003B
:101BB00035140000C91BC9077FF513AC94F8DC305D
:101BC00013F0010700F0008411F0C8FA0146002864
:101BD000D5D094F8183184F81931A78DC0F8208039
:101BE000C0F82480032309200A7F0B714877D4F8BA
:101BF0002031CF8042F00302C3F307270A771A0C83
:101C0000C87781F8203081F8217081F82220B1E76F
:101C10007864002040C902000CB60200BB480DF0F9
:101C200005FC00283FF4DDAB238E94F8EC1002791C
:101C300033440633A4F8F23042F0030223466FF334
:101C400000010826012584F8EC1046710271C57167
:101C500053F8ED2F82601B790373D4F8B031B4F8D8
:101C6000F220A0F80D20002B00F0988394F8522168
:101C7000960700F1938394F8AB21D50700F18E838A
:101C8000D4F8BC21934204BF1A68C4F8BC21D4F82C
:101C9000B421002A00F0C587D4F8B8311A68026070
:101CA00018600368C4F8B801002B7FF49AABC4F83D
:101CB000C001FFF796BB012011F032FA064600285A
:101CC0003FF48FAB91480DF0B1FB054600283FF47F
:101CD00088AB11F043FA94F80611238E3268D4F8D9
:101CE000000150606FF30101434484F8061106338C
:101CF0002979C4F800619BB20C22A4F8EC3041F0C1
:101D000003016A71D4F81021D4F8B001804E297112
:101D10000021E971A6FB021294F81461B4F80811CD
:101D20002E72C2F38F22B4F80A61A5F80B10B4F832
:101D30000C11A5F80F10A5F80D60A5F81130A5F845
:101D40000920002800F0358394F852319E0700F1F5
:101D5000308394F8AB31D90700F12B83D4F8BC3130
:101D6000984204BF0368C4F8BC31D4F8B431002BE6
:101D700000F05F87D4F8B8311A682A601D602868BF
:101D8000C4F8B85100287FF42CABC4F8C051FFF759
:101D900028BB022011F0C4F9074600283FF421AB0C
:101DA0005A480DF043FB054600283FF41AAB94F85F
:101DB000EC306FF30003C3F3421242EA930212F0D5
:101DC000070884F8EC30DBB240F0078694F8E8208E
:101DD000A4F8EE80980784F8E92000F1C086434615
:101DE000404605212A79697185F808806B72D4F81C
:101DF000B031688142F0030218212A71E971002B89
:101E000000F0378394F85221910700F1328394F85F
:101E1000AB21D20700F12D83D4F8BC21934204BF3B
:101E20001A68C4F8BC21D4F8B421002A00F009874C
:101E3000D4F8B8311A682A601D602B68C4F8B8510C
:101E4000002B7FF4CEAAA0E730480DF0EFFA8046D1
:101E500000283FF4C6AA94F93D30002B00F1040994
:101E600080F2278494F87E30190700F1368694F8C2
:101E7000ED50002D00F0BD84037994F8DC2043F090
:101E80000303D207037140F12086D4F81C315B07AD
:101E900040F11B86112203234572C271037288F838
:101EA0000570D4F8B031002284F8ED20002B00F04A
:101EB000F98494F85221970700F1F48494F8AB2147
:101EC000D60700F1EF84D4F8BC21934204BF1A680E
:101ED000C4F8BC21D4F8B421002A00F0F786D4F865
:101EE000B8311A68C8F80020C3F80080C4F8B88177
:101EF000D8F80030002B00F04F8594F8E83084F8D3
:101F0000E930FFF76EBA3C60FFF7FDBA7864002055
:101F10005917B7D102F00702B4F89CC1B4F8A01168
:101F2000B4F89E91B4F8A281A4F85EC0042AA4F883
:101F3000621000F0D78494F89A31062262F302030B
:101F400084F89A31D4F80071002F00F0B884386812
:101F5000002800F0B4843B7F4268B4F82CE0C4F859
:101F6000002143F0030303223B774FF0090A1523B6
:101F7000A7F806E0A7F820C079843A71FB773946C4
:101F8000A7F82490A7F8268087F81DA011F0B8F8CC
:101F900011F0C0F8FFF74EBABD480DF047FA00281F
:101FA0003FF448AA94F89A21B4F89E11B4F8A231EB
:101FB000A4F8D6100127A4F8D83067F3020284F8F9
:101FC0009A2109270279477194F8DC70D4F81CE152
:101FD000818142F0030202711B224FF0140C002198
:101FE0000272FA0780F807C0417240F1DF831EF4E5
:101FF000006F00F0DB83B3F5296F28BF4FF429632E
:10200000B3F5A47F38BF4FF4A4734FF42961D4F81B
:10201000B0214181C381002A00F0318394F852310C
:102020009B0700F12C8394F8AB31DF0700F1278385
:10203000D4F8BC319A4204BF1368C4F8BC31D4F858
:10204000B431002B00F02286D4F8B8311A6802604F
:1020500018600268C4F8B801002A00F07C85B4F862
:10206000CA30A4F8CC30FFF7E5B9D4F8B421002A7F
:102070007FF42AAD0360C4E96C00C4F8B8012BE515
:1020800007FB113340F2E24282489BB202FB03F3AA
:10209000A3FB00017CA3D3E90023FEF7D7FC2D1A94
:1020A000FFF7B7BA7C497D4840F60E1202F01EFDDC
:1020B000404080F311884FF0030002DF3868FFF7DB
:1020C0005EBAE26C636C734E03FB1A23E36416F092
:1020D000BFFC804694F8DC00C0F3820016F0BAFC26
:1020E00008EB000307FB03F36D48E26C94F814114E
:1020F00003F5742303F23F23A0FB03034FEA934A43
:102100000AFB0BF07B080244963B9A4228BF1A4612
:1021100009FB01FC4FF0000EC4E91232A0FB0601DE
:1021200059A3D3E90023C4F854C0C4F8E4E0C4F8C8
:1021300044A0FEF78BFCD4F8103184465948A0FB2C
:102140000330800A09FB00F0A0FB06014EA3D3E98F
:102150000023A5EB0C05FEF779FCA7EB0A0620F09F
:102160007F48FFF776BA94F8717194F870118F4236
:1021700000F09D814C4F3968002900F011858C4298
:102180007FF42FA994F8721101F00701052900F2DC
:10219000DB860FF2080E5EF821F000BFAD220000D2
:1021A00003220000B5210000D9130000D91300005C
:1021B000D913000093073FF514A910F0CFFF014693
:1021C00000283FF4DCAC94F872010B7F032262F329
:1021D000020084F872011343A08D0A7118220B7754
:1021E0004A77B4F87421B4F87631C880B4F878012D
:1021F0000A84B4F87A214B840F238884CA84CB776D
:10220000B8E494F87381B8F1000F40F07F8594F939
:102210003D30002BC0F2AD8594F8723194F87C11FA
:10222000C4F81081052262F30203012284F872319E
:1022300084F81421002900F06A86B4F87431B3FBE5
:10224000F1F3134413FB01F39BB294F8722194F859
:102250000611A4F80831C2F3C0039B0021F0070265
:1022600043F002031343B4F87811B4F87A2184F8E8
:1022700006310CF1FF3C84F805C1A4F80A11A4F85A
:102280000C21FFF7AEB800BF8D49FD1A0700000012
:102290007864002000CA9A3B40C902000CB60200D4
:1022A00083DE1B435917B7D1F4630020B348B4F859
:1022B0003680B4F832900DF0B9F8014600283FF4AA
:1022C0005EAC94F872010A794FF0040C6CF30200D2
:1022D00042F003024FF0180C84F8720108EB090376
:1022E0000A7181F805C0B4F874C1B4F87601B4F885
:1022F0007821A1F808C03344B4F87AC148818A81B2
:102300000F200022A1F811304FF0FF33C8714B7538
:102310008B75CB750B764B768B76CB760B774B77B5
:102320008B772046A1F80EC00A74CA740A7511F0A2
:102330000DFEB4F8CA30A4F8CC3094F8E80094F854
:10234000E9303C60FFF748B8228E62457FF422A94D
:1023500040F2E242B4F80CE1B4F8C61002FB03FB11
:1023600042F2107202FB0EB2013AB2FBFBF292B2E1
:1023700091427FF411A901233B71FFF718B90122A3
:10238000104602210DF0F4F86FF08B00FFF730B823
:102390004FF4A479CDF82C90FFF74CBAD4F8B421BF
:1023A000002A7FF479AC0360C4E96C00C4F8B8017A
:1023B0007AE4D4F8B431002B7FF4DCAC2860C4E9B3
:1023C0006C55C4F8B851DDE46C480DF02FF80028C6
:1023D0003FF4D5AB94F81921694BC4F81C31013A8C
:1023E000092384F81921437194F93D108760C7606F
:1023F000D4F81C310372C3F307221B0C42728372A0
:102400000279D4F8B0310029ACBF08210E2142F086
:102410000302C1710271002B00F0CC8194F85221AB
:10242000920700F1C78194F8AB21D70700F1C28170
:10243000D4F8BC21934204BF1A68C4F8BC21D4F874
:10244000B421002A00F05684D4F8B8311A6802602A
:1024500018600368C4F8B801002B00F06E83B4F86C
:10246000CA30A4F8CC30FFF78ABBC4F8C001FFF72C
:1024700036BBD4F8B421002A7FF4DAAC2B60C4E96F
:102480006C55C4F8B851002B7EF4ABAF7DE494F8E2
:10249000642094F85C00C5F3820161F3020284F8C1
:1024A00064204A4611F0EAFC0646FFF7C9B994F8E1
:1024B000987194F89921BA4200F0268294F89A1102
:1024C00001F00702062A00F242850FF2080C5CF8C0
:1024D00022F000BF85250000D9130000D9130000A9
:1024E000D9130000F1240000F1240000D9130000EA
:1024F000B4F89C31A4F85E3001F00703B4F8A021D1
:10250000B4F89E91B4F8A281A4F86220042B00F0E4
:10251000D3830B46062262F3020384F89A31D4F87F
:102520000071002F00F0BA833868002800F0B683ED
:102530003B7F4268B4F82CC0C4F8002143F0030389
:102540003B77032209237B773A71B4F85E10B4F825
:1025500062207A841523FB77A7F806C03984A7F890
:1025600024903946A7F8268010F0CAFD10F0D2FD5D
:1025700094F8E80094F8E930FEF72EBF7864002064
:102580007F490100DD480CF051FF014600283FF46F
:10259000F6AA94F89A21B4F89E01B4F8A231A4F8EE
:1025A000D6000127A4F8D83067F30202092784F87F
:1025B0009A210A794F7194F8DC70888142F0030205
:1025C00014204FF0000C0A71FF07D4F81C21C871C9
:1025D0004FF01B0081F809C0087240F19383100589
:1025E00040F1C083B3F5296F28BF4FF42963B3F5D9
:1025F000A47F38BF4FF4A4734FF42962D4F8B0011C
:10260000CB81B2F5A47F38BF4FF4A4724A81002871
:1026100000F0228394F852319B0700F11D8394F857
:10262000AB31DF0700F11883D4F8BC31984204BF06
:102630000368C4F8BC31D4F8B431002B00F07684C0
:10264000D4F8B8311A680A601960C4F8B8110B6878
:10265000002B7FF404AFC4F8C01100E7A849A948D3
:1026600040F68A6202F042FA404080F311884FF04F
:10267000030002DF286894F8ECB0FFF7FAB8D4F84A
:10268000B431002B7FF4E0AC0260C4E96C00C4F804
:10269000B801E1E49A499B4840F6B66202F026FA96
:1026A000404080F311884FF0030002DF2868FFF7F5
:1026B00008B904F17F0633462A4604F1EE0104F21C
:1026C0005D1017F0F3FBD4F88B20C4F8AC20D4F8DD
:1026D0007F00D4F88310D4F88730C4F8A0002246D5
:1026E000C4F8A830C4F8A41052F8981F94F89700C2
:1026F000526894F87E30C4F8BD2094F8B820C4F82D
:10270000B91043F0080365F3000042F0010284F8B9
:10271000970084F87E3084F88F5084F8905084F8C5
:10272000915084F8925084F8935084F8945084F82F
:10273000955084F89650C4F8B0504946C4F8B45047
:1027400084F8B820204611F0BDFDD4F8B031002B3C
:102750003BD094F85221950737D494F8AB21D00799
:1027600033D4D4F8BC21934204BF1A68C4F8BC2106
:10277000D4F8B421002A00F0B282D4F8B8311A6833
:10278000C8F80020C3F80080D8F80030C4F8B88139
:10279000FFF7B0BBD4F8B421002A7FF408A9336056
:1027A000C4E96C66C4F8B861FFF709B94FF4A473C3
:1027B00019462CE4D4F8B421002A7FF445AE036016
:1027C000C4E96C00C4F8B80146E6D4F8B421002A84
:1027D000D3D1C8F80030C4E96C88C4F8B881FFF7D9
:1027E00089BB94F8652003F0070302F00702FFF7A6
:1027F00052B804F17F0633462A4604F1EE0104F292
:102800005D1017F053FBD4F88B20C4F8AC20D4F83B
:102810007F00D4F88310D4F88730C4F8A000224693
:10282000C4F8A410C4F8A83052F8981F94F8B8005F
:102830005268C4F8BD20C4F8B91094F87E2094F80A
:10284000971098F8043084F88F5042F0080241F055
:10285000010165F30000012684F87E2084F8905081
:1028600084F8915084F8925084F8935084F89450EE
:1028700084F8955084F89650C4F8B050C4F8B45019
:1028800084F8971084F8B80043F00303052288F811
:10289000056088F8043088F80720D4F8B031002BA0
:1028A0007FF407ABD4F8B421002A7FF418ABC8F842
:1028B0000030C4E96C88C4F8B881FFF719BB10492F
:1028C000104840F65B5202F011F9404080F3118845
:1028D0004FF0030002DF3868B4F85EC0B4F862104D
:1028E000FFF739BBB4F8A421002A40F0738184F8C3
:1028F0009931A4F8CC20FFF725BB00BF78640020F5
:1029000040C902000CB6020094F8A82194F8A9115D
:1029100091423EF466AD94F8AA1101F00300032839
:1029200000F0718200287EF45CADD1480CF07EFD91
:10293000014600283FF423A994F8AA3194F8AC2169
:1029400094F8AB7194F864C0012060F30103C3F301
:10295000820060F30202C3F3421060F3C502C7F3C2
:102960004007087984F8AC2167F3C30CC3F38202F3
:1029700084F8AA3184F864C040F00300C3F3421322
:1029800003270A7216220871CA714B724F71002216
:10299000204611F0DBFA62E5C4F8C081FFF7ADBA5A
:1029A00092457EF478AF01232B71294610F0A8FBE5
:1029B000D4F80051002D00F078822868002800F03B
:1029C00074824368C4F8003101232B71294610F04A
:1029D00097FB10F09FFBFEF704BD238E33440633B4
:1029E000A4F8EE3010F0BAFB3B68D4F800215A602E
:1029F000C4F8007110F0B2FB0368D4F800215A60EB
:102A000094F8EC30C4F80001C3F38208B4F8EE0087
:102A10005B09FFF7E6B940F67A329649964802F02C
:102A200065F8404080F311884FF0030002DF94F80E
:102A3000E80094F8E930FEF7CFBC8D480CF0F6FCC6
:102A400000283FF49CA894F8252194F82631013AF7
:102A500084F82521027943F00103062184F8263108
:102A600042F003024171D4F8B03102710B216FF0D2
:102A70000E020C270172427205214FF0FF32C7711E
:102A80008172C2720273002B00F0BD8094F8522153
:102A9000970700F1B88094F8AB21D10700F1B3801B
:102AA000D4F8BC21934204BF1A68C4F8BC21D4F8FE
:102AB000B421002A00F01982D4F8B8311A680260F3
:102AC0001860C4F8B8010368C6E40D2388F80850FC
:102AD00088F807300227FFF7E2B94946204611F08F
:102AE000F1FBD4F8B0315BB394F85221950727D4A9
:102AF00094F8AB21D00723D4D4F8BC21934204BF6F
:102B00001A68C4F8BC21D4F8B421002A00F022814C
:102B1000D4F8B8311A68C8F80020C3F80080C4F8A7
:102B2000B881D8F80030002B78D094F8523123F0D7
:102B3000030384F85231FFF7E0B9C4F8C0018EE412
:102B4000D4F8B421002AE3D1C8F80030C4E96C8875
:102B5000C4F8B881E5E7C4F8C001FFF780BA10F007
:102B6000FDFA1923A28D87F81C803B7194F864301C
:102B70003868FA80C3F302037B7794F86530C3F3B7
:102B80000203BB77394610F0BBFA10F0C3FA94F891
:102B9000EC30B4F8EE00C3F382085B09FFF721B90B
:102BA00094F8723103F00703052B00F2CD8101A1E7
:102BB00051F823F0AD22000003220000B5210000EF
:102BC000E3130000E3130000E3130000C4F8C06146
:102BD000FEF7F8BE94F89A01B4F8A671A4F89E2105
:102BE000002363F3020084F89A01A4F8A431A4F846
:102BF000A271FFF7A7B91A68026018600368C4E9F8
:102C00006D00FEF769BFD4F8B421002A7FF454AFF9
:102C10000360C4E96C00C4F8B80154E7C4F8C0818B
:102C200083E71A68026018600368C4E96D00FFF763
:102C30003BB803682B6005602868C4E96D55FFF751
:102C4000A1B81A682A601D602B68C4E96D55002B75
:102C50007EF4C7ABFFF799B8D4F8B431002B7FF4FA
:102C6000EFAC0860C4E96C11C4F8B811EFE400BF20
:102C70007864002040C902000CB602001A68326075
:102C80001E603368C4E96D66FEF799BE1368036081
:102C900010600268C4E96D00FFF7DEB9BA49BB48AD
:102CA00040F65B5201F022FF404080F311884FF064
:102CB000030002DF38683BE4B4F8A421002A40F0A6
:102CC000E48084F89971A4F8CC2028E41A68C8F844
:102CD0000020C3F80080C4E96D88FFF709B91A68BD
:102CE000C8F80020C3F80080D8F80030C4E96D8827
:102CF000FFF700B91A68026018600368C4E96D0044
:102D0000FFF7AABB4FF4A4731A4677E4A0480CF06F
:102D10008DFB014600283EF432AF037943F00303F4
:102D20000B71112003220F23C8714A710B7294F8A2
:102D300073314B722046002211F008F994F870317B
:102D400084F8713100233B6094F8E80094F8E9308E
:102D5000FEF742BB1A68C8F80020C3F80080C4E937
:102D60006D88DEE6D2054FF4A47340F1C480A8223A
:102D700044E487480CF05AFB014600283EF4FFAEBD
:102D80000379182243F0030303714271B4F87421EC
:102D9000B4F87631B4F878010A81B4F87A214B811D
:102DA00010238881CA81CB7194F87C310B74B4F8FC
:102DB0007E31B4F88001B4F88221A1F81130B4F862
:102DC0008431A1F81300B4F88601A1F81520B4F8F5
:102DD0008821A1F81730B4F88A31A1F81D30A1F884
:102DE0001900A1F81B202046424611F0AFF894F8D4
:102DF000703184F8713194F8E80094F8E930C7F83C
:102E00000080FEF7E9BA080784F8A921C1F382021D
:102E100061D594F8AA21022161F3840284F8AA21E1
:102E200094F8AA2157064FEA52114CD5022161F3BA
:102E3000471284F8AA2194F8AA1194F864C094F86F
:102E4000650094F8AB21C1F382070CF0070C00F089
:102E50000700C2F38002BC4508BF00275200B0EB58
:102E6000511F42F001024FEA511108BF002142EA0E
:102E70004112023B42EA8702062184F8E93084F8D5
:102E8000EC2084F8EA10FEF7D5BA00200B4660F378
:102E90000203A4F89E21B4F8A62184F89A31A4F87C
:102EA000A401A4F8A221FFF73ABB3749374840F6FE
:102EB000996201F01BFE404080F311884FF003003F
:102EC00002DF28687DE5C80718D5012161F34712A4
:102ED00084F8AA21AFE7D1071DD594F8AA210121D2
:102EE00061F3840284F8AA219AE71A6802601860E4
:102EF000C4E96D00E7E51A46FFF780BB11F0040155
:102F000018BF042161F3471284F8AA2193E7B4F8AB
:102F10007631FFF79AB912F004020ED094F8AA2184
:102F2000042161F3840284F8AA2179E703680B6025
:102F30000160C4E96D11FFF78ABB94F8AA1162F32E
:102F4000840184F8AA116BE740F6874265E50E49D3
:102F50000E4840F6835201F0C9FD404080F31188CD
:102F60004FF0030002DFFEF70ABE0749074840F6AC
:102F7000835201F0BBFD404080F311884FF0030005
:102F800002DFFEF757BA00BF40C902000CB60200CC
:102F900078640020000000002DE9F04F1C46136803
:102FA0000D46D3F800A031F82ECF2346174653F82C
:102FB0000C6B8A78A4F80CC09A70D5F82A30A360FC
:102FC0002B46814653F83A2FE26104F11C001B792D
:102FD000037193B005210CF0F1FB94F8213000F05F
:102FE0003F0060F30503012884F821300AD995F8E1
:102FF0003F3003F01F02053AC3F304010B2A84F8A3
:10300000221002D913B0BDE8F08F3A6896F8DC10B0
:1030100000209060B5F83480A4F8128095F836202E
:1030200095F8370042EA0022A2825B0963F384012B
:103030006B8E0B9386F8DC1040F2E2431FFA88F89F
:1030400003FB08F815F004FD834696F8DC00C0F396
:10305000820015F0FFFC584408FB00F0DFF81CE389
:1030600095F831C0A18ABC4A00F5742000F23F20D7
:10307000AEFB00304FEA580E40F2E24303FB0CF384
:10308000800CAEF1960EA062C4F82CE0E3632B8FA7
:10309000ADF83230184642F2107E80B20EFB00804E
:1030A000AE4B424401F1060E0138B2FBF8F2B0FB20
:1030B000F8F0A6F8C60090B270454344A6F8D200D6
:1030C000B3FBF8FCA6F8CAC002DD401A063880B28D
:1030D000A6F8CE002946A268C6F8E02051F81E0FD7
:1030E00095F81CB08A8810904FF4807CA5F81CC01D
:1030F000CBF380138DF838309AF82A000D91CBF37A
:103100004013ADF8442097F812B08DF83C300A9384
:1031100014F08CFF0D99002840F0EA80BBF1FF0FFE
:10312000C5F82B00A5F82F0000F0EE80584605F1F9
:103130001F0214F08DFAAA7FBDF844101098A5F86C
:1031400029100232AA77C5F8250096F8DC20608A9B
:10315000A18ABDF83230EB86C2F38202688685F818
:103160003820A986304611F009FA29462082E880E5
:103170007D6848460FF0C4FF238AEB8018232B712B
:103180000A9B2868002B00F0CF8094F809E0237A8E
:1031900094F80BC0A17A94F8212041EA0C2143EA6B
:1031A0000E234B4042F040020121638484F8212029
:1031B000297729460FF0A4FF0FF0ACFF94F84900DF
:1031C000012100F0070015F061FB654A4FF000098E
:1031D0008346312300F25240A0FB02013360C6E96E
:1031E00001995BA3D3E90023FDF730FCFD680B993F
:1031F000A36A40F2E24220F07F4002FB0155F060FA
:103200004A4602210120A8EB03080CF0B1F9504610
:1032100010F0F8FC821C534BCDF800A0D2B2484607
:1032200001210DF0C5FC05F286350128A5EB0B0543
:1032300000F086809AF82830DB0779D4304611F008
:103240009DF9DFF81CB1A8FB0B8941A3D3E900234A
:10325000044649464046FDF7F9FB434A069620F0EE
:103260007F4AAAFB0223072101FB0A334FF4B67100
:10327000BF6808913D4907913D490591B8EB0200AF
:1032800069EB0301F368049300264FF47A7200237C
:103290000396FDF7DBFB2EA3D3E900238446A5FBB1
:1032A0000B01CDE901ACFDF7D1FB033420F07F40E9
:1032B000E4B2313F3B4600902246304601210DF0FA
:1032C000EFFB30F002030BD02A492B4840F26D127D
:1032D00001F00CFC404080F311884FF0030002DF46
:1032E00001221046022113B0BDE8F04F0CF040B9A6
:1032F0002846BBF1FF0F50F824CFC5F82BC08088BB
:10330000A5F82F007FF412AF0021BDF844C010983B
:103310009DF83830C5F82510A5F82910A5F823C068
:10332000AB77C5F81F0010E79DF83C302B7740E7DE
:10333000002301220093184611460DF039FC7DE769
:103340000FF0AEFF82453FF475AF13F0D1FE71E789
:103350008D49FD1A070000007FC3C901FF596202B1
:1033600000CA9A3B157101008D49FD1AC970010010
:1033700031710100A0C902000CB6020083DE1B43BC
:103380002DE9F04FDFF8F890394C8FB005460DF17C
:1033900037010DF136000FF025FF9DF836A09DF89E
:1033A00037B00DF04BFCD9F80060A6FB04672EA3E4
:1033B000D3E90023804639463046FDF747FB0246F5
:1033C000D9F804002B4B0695A0FB040100251446F8
:1033D000059325A3D3E90023CDE90755FDF736FB77
:1033E000254A039524F07F44A4FB0223CDE90A6714
:1033F0000146072000FB0433B01A21F07F460B99E9
:10340000049661EB03014FF47A720023FDF71EFB73
:1034100001940290434600955A46504603210DF010
:103420003FFB30F0020404D06FF08B000FB0BDE81A
:10343000F08F124845F6B312002323F0B9FA20B9F1
:10344000D9F80C000FB0BDE8F08F9DF837209DF83B
:1034500036000094234603210DF0AAFB6FF07300A1
:10346000E4E700BFAFF300808D49FD1A07000000BC
:1034700000CA9A3B01BB01008D49FD1AC06B0020B8
:10348000B06B00200000000070B50F4E04460DF038
:10349000D5FBB1680DF0D4FB0C4B05467068B5FB4D
:1034A000F4F4A0FB030106A3D3E90023FDF7CEFA51
:1034B0002C4420F07F40844294BF0020012070BD46
:1034C0008D49FD1A07000000B06B002000CA9A3B2E
:1034D0002DE9F04F23F00045904699461E461346CD
:1034E00055EA080293B035D06B4A009021F00044B1
:1034F000944283468A460F4625DC34D0954222DC2E
:10350000654A95421DD0002F36DB00220292002B27
:103510004CD1614B9D4200F09780604B9D4200F082
:10352000A580B6F1804F00F0B9845D4B9E423DD13D
:10353000002F3BDB5846514613B0BDE8F04F25F055
:1035400093B9002BDFD0009B04F1404404F58014B4
:1035500023430BD1514C0023CDE90034DDE90001B8
:1035600013B0BDE8F08F08B9A542C9DD4D4813B0CE
:10357000BDE8F04F25F048BA4B4A95427EDCA2F1F7
:10358000547295420EDD2A15A2F2FF32142A40F33E
:103590008F84C2F1340223FA02F101FA02F29A4254
:1035A00000F0DC8400220292002BB6D0584651462F
:1035B00025F01EFA5B46CDE9000133BB24B1374B41
:1035C00027F040429A4220D1002E07DADDE900239D
:1035D00032490020FDF7CAF8CDE90001002FBDDA1D
:1035E000029B04F1404404F58014234340F0858499
:1035F000DDE9002310461946FCF7D6FD02460B46CE
:10360000FDF7B4F8CDE90001A8E7029AFB0F013BF2
:103610000A93134335D0254B9D424BDD03F10473D0
:103620009D42234B40F3C8839C4240F35483002EB9
:1036300040F3548316A3D3E9002310461946FCF740
:103640006BFFCDE9000189E7009A04F1404303F5DF
:10365000801313433FF47EAF154B9C4240F36883C5
:10366000002EC0F23B83CDE9008977E7002EC0F23F
:103670000B8458465146CDE900016FE702220292C1
:1036800045E75A46584653465146B5E7AFF30080E2
:103690009C7500883CE4377E0000F07F0000F03F1E
:1036A0000000E03F88C90200FFFF3F430000E04107
:1036B000FFFFEF3FD44B3B40002B40F04683DDE95A
:1036C0000001D24B0022FCF727FFCDE900010C4698
:1036D0006FF034062315CE4DC4F31302A3F2FF336B
:1036E00042F07F549919AA420B9144F4401440F3DC
:1036F0002783C84B9A4240F30D8400220023CDE972
:10370000082301310B91A4F58014CDE91023C24B9D
:103710000022CDE906230025DDE90001DDE90623CD
:1037200021468246FCF740FDA346DDE90623064616
:103730000F4650462146CDE90CABFCF737FD02465B
:103740000B460020B449FDF711F80A460146CDE9C1
:103750000E121346394602463046FCF7DDFE641071
:1037600044F0005482468B4604F500238C46CDE994
:1037700004AB5919D3460023CDE900BC0093DDE921
:1037800000AB002004460D4602460B465046594603
:10379000FCF7C2FE02460B4630463946FCF704FDF4
:1037A000DDE9062306460F4620462946FCF7FCFCC9
:1037B00002460B46DDE90C01FCF7F6FC52465B467F
:1037C000FCF7AAFE02460B4630463946FCF7ECFCF5
:1037D000DDE90E23FCF7A0FE04460D46DDE90401F9
:1037E00002460B46CDE90645FCF796FE74A3D3E9E5
:1037F000002304460D46FCF78FFE73A3D3E9002394
:10380000FCF7D4FC22462B46FCF786FE70A3D3E9D6
:103810000023FCF7CBFC22462B46FCF77DFE6EA373
:10382000D3E90023FCF7C2FC22462B46FCF774FECA
:103830006BA3D3E90023FCF7B9FC22462B46FCF727
:103840006BFE69A3D3E90023FCF7B0FC22460646D1
:103850000F462B4620462946FCF75EFE02460B46E5
:1038600030463946FCF758FE524604460D465B4644
:10387000DDE90401FCF79AFCDDE90623FCF74CFEC8
:1038800022462B46FCF792FC524604460D465B4608
:1038900050465946FCF740FE26462F4604460D4644
:1038A0005E4B0022CDE90C45FCF780FC32463B46DE
:1038B000FCF77CFC009C0D4622462B4650465946A0
:1038C000FCF72AFE554B82468B46002220462946AD
:1038D000FCF76AFCDDE90C23FCF766FC02460B46AC
:1038E00030463946FCF760FCDDE90423FCF714FEA2
:1038F000224606460F462B46DDE90601FCF70CFE84
:1039000002460B4630463946FCF750FC06460F4649
:1039100002460B4650465946CDE904ABFCF746FC3F
:10392000009C33A3D3E9002320460D46FCF7F4FDA9
:10393000DDE9042382468B4620462946FCF734FC09
:1039400002460B4630463946FCF72EFC2AA3D3E943
:103950000023FCF7E1FD2AA3D3E9002306460F4626
:1039600020462946FCF7D8FD02460B46304639462C
:10397000FCF71CFCDDE91023FCF718FC04460B984F
:103980000D46FCF75FFD224606460F462B46504685
:103990005946CDE90445FCF709FCDDE90823FCF7AD
:1039A00005FC32463B46FCF701FC009C32463B4698
:1039B00020460D46FCF7F8FB32E000BFAFF3008075
:1039C000EF4E454A287ECA3F65DBC9934A86CD3F04
:1039D00001411DA96074D13F4D268F515555D53FEA
:1039E000FFAB6FDBB66DDB3F033333333333E33F82
:1039F000000000E009C7EE3FFD033ADC09C7EE3FD7
:103A0000F5015B14E02F3EBE0000F07F0000404354
:103A10008E98030079B60B000000F03F00000840CC
:103A2000DDE90823FCF7C0FB52465B46FCF7BCFB14
:103A300002460B46DDE90401FCF7B6FB82468B46E5
:103A4000029B0A9A013B13430CBFD54BD54B002276
:103A5000CDE904230023CDE900890093DDE9006767
:103A6000404632463B464946FCF79EFB22462B46E3
:103A7000FCF752FD4246CDE902014B4650465946FD
:103A8000FCF74AFD02460B46DDE90201FCF78EFB1E
:103A900032463B4682468B4620462946FCF73CFD93
:103AA0000B46024606460F4650465946FCF77EFB3B
:103AB000BD4B994204460D46884640F3148101F1FE
:103AC0003F4303F5E003034340F00782A0A3D3E99B
:103AD000002350465946FCF769FB3246CDE9000108
:103AE0003B4620462946FCF75FFB02460B46DDE9D4
:103AF0000001FCF7A1FF002840F0EF81C8F30A5352
:103B00004FF48012A3F2FE3342FA03F34344A74971
:103B1000C3F30A52A2F2FF3241FA02FCC3F31305C7
:103B200023EA0C01C2F1140445F48015B8F1000F2A
:103B30000B4645FA04F102914FF00000B8BF49422C
:103B40000246B8BF029130463946FCF72DFB0B46C2
:103B5000024606460F4650465946FCF727FB029B95
:103B60001B050D46009300247BA3D3E900232046C8
:103B70002946FCF7D1FC3246804689463B46204622
:103B80002946FCF711FB02460B4650465946FCF706
:103B90000BFB73A3D3E90023FCF7BEFC72A3D3E9AC
:103BA000002306460F4620462946FCF7B5FC024690
:103BB0000B4630463946FCF7F9FA06460F460246F0
:103BC0000B4640464946FCF7F1FA42464B460D4645
:103BD0000446FCF7E9FA02460B4630463946FCF744
:103BE000E3FA2B4682468B46224629462046FCF7BE
:103BF00093FC5FA3D3E9002306460F46FCF78CFC39
:103C00005DA3D3E90023FCF7CFFA32463B46FCF72D
:103C100083FC5BA3D3E90023FCF7C8FA32463B469A
:103C2000FCF77AFC58A3D3E90023FCF7BDFA32462F
:103C30003B46FCF771FC56A3D3E90023FCF7B6FA28
:103C400032463B46FCF768FC02460B4620462946B6
:103C5000FCF7AAFA06460F4602460B4620462946BE
:103C6000FCF75AFC002280468946304639464FF020
:103C70008043FCF799FA02460B4640464946FCF75A
:103C800075FD524606460F465B4629462046FCF720
:103C900043FC52465B46FCF789FA02460B46304627
:103CA0003946FCF781FA2B462246FCF77DFA02469C
:103CB0000B4600203B49FCF777FA009D0D44B5F513
:103CC000801FC0F247812946DDE90423FCF724FC6C
:103CD000CDE9000142E4002EFFF6ACAC0023002445
:103CE000CDE900343AE4DFF8CCC021F0004363456D
:103CF00040F3EB802E4B0B4403430AD132463B4644
:103D0000FCF752FA52465B46FCF78CFE00283FF463
:103D1000F5AE21A3D3E90023DDE90401FCF7FCFBA8
:103D20001DA3D3E90023FCF7F7FBCDE9000115E45F
:103D3000002ED3DA09F10043CDF8008001930DE4A1
:103D400000220023CDE90823DFE40026C2E400BFFF
:103D5000FE822B654715973C00000000432EE63F8E
:103D6000EF39FAFE422EE63F396CA80C615C20BEAA
:103D7000D0A4BE726937663EF16BD2C541BDBB3E71
:103D80002CDE25AF6A56113F93BDBE166CC1663F4F
:103D90003E5555555555C53F59F3F8C21F6EA501FF
:103DA0000000F0BF0000F03FFFFF8F40FFFF0F005B
:103DB00000346F3FFFCB90409C428CDB804B9C4299
:103DC0003FF735ACDDE900017D4B0022FCF7ECF953
:103DD0006DA3D3E9002304460D46FCF79DFB6CA3BD
:103DE000D3E9002306460F4620462946FCF794FBFC
:103DF000B246BB4606460F46724B00222046294675
:103E0000FCF78AFB02460B4663A1D1E90001FCF7EF
:103E1000CBF922462B46FCF77FFB02460B460020DF
:103E20006949FCF7C1F92246CDE900012B4620463D
:103E30002946FCF771FB02460B46DDE90001FCF761
:103E40006BFB57A3D3E90023FCF766FB02460B4646
:103E500030463946FCF7A8F902460B4606460F469F
:103E600050465946FCF7A2F9002452465B462046CC
:103E70000D46FCF799F902460B4630463946FCF7E9
:103E800093F982468B46DBE54D495A46534600205E
:103E9000FCF76CFCCDE90001FFF760BB5A465846C1
:103EA00053465146FCF738FBCDE90001FFF756BBFE
:103EB000002B41D1C2F1140245FA02F101FA02F2DB
:103EC000AA4255D00293FFF728BB3F4A934256DCE3
:103ED000DDE900120091029145E633A3D3E9002306
:103EE000DDE90401FCF718FB2FA3D3E90023FCF75D
:103EF00013FBCDE90001FFF731BB029B012B7FF4DF
:103F00002DABDDE90045224605F10043CDE9002354
:103F1000FFF724BB26A3D3E90023CDE9082326A37A
:103F2000D3E90023CDE91023284B0022CDE9062355
:103F30004FF48025FFF7F0BB5846514624F058FD5A
:103F40005B46CDE90001002B7FF49BABCDF808B0B8
:103F5000FFF734BB029A00F03BF8B5E601F001012F
:103F6000C1F102020292002B3FF4D7AAFFF71EBB59
:103F700001F00101C1F102030293FFF7CEBA1B1554
:103F8000BEE500BFAFF30080000000604715F73FBB
:103F900044DF5DF80BAE543E555555555555D53F4C
:103FA000FE822B654715F73F9C7500883CE4377E01
:103FB0000000004003B8E23F06D0CF43EBFD4C3E8B
:103FC0000000F03F0000D03F0000E03F0000F83F5D
:103FD000F8B5C1F30A5304460D460E46174673BBA7
:103FE00021F000460346334328D0314B0022FCF732
:103FF00093FA304B9F4204460D461ADBC1F30A5335
:104000000E46363B3B4440F2FE72934220DC002BCE
:104010003CDC13F1350F2CDA4CF250339F4217DCA5
:1040200005F0004343F0D27141F4B731224841F02A
:104030001F011BA3D3E90023FCF76EFAF8BD40F281
:10404000FF729342DED102460B46FCF7AFF8F8BD93
:1040500005F0004343F0FC4141F45F1141F410517D
:1040600011A3D3E90023154841F03C01FCF754FAB1
:10407000F8BD26F0FF4626F4E006363346EA035143
:1040800020460F4B0022FCF747FAF8BD26F0FF460A
:1040900026F4E006204646EA0351F8BDAFF300805F
:1040A00059F3F8C21F6EA5019C7500883CE4377E69
:1040B00000005043B03CFFFF59F3F8C29C750088E4
:1040C0000000903C2DE9F04F8DB000AF044607F1A1
:1040D00024008A46FA6199461EF0E2FF20461EF04F
:1040E000D3FF002800F0B48001460646002207F105
:1040F00024001EF0F7FFB861002840F0A680564B60
:10410000002200204FF0804124F012FA024609F10B
:1041100004000B465044C7E90423FCF783F9D7E9B0
:10412000042304460D461046194600224B4BFCF76B
:104130003BF802460B4620462946FCF773FC002854
:1041400076D130461FF010F8C31D23F00703ADEB06
:10415000030D0546424B002200204FF0804124F021
:10416000E7F902460B46F86DC7E90423FCF75AF954
:1041700002460B462846C7E90223FCF763F9374B92
:10418000C7E900010022D7E90401FCF70DF8024657
:104190000B46D7E90001FCF7BFF902460B46D7E909
:1041A0000201FCF73FFCEB46002841D1FB6DB3B3A5
:1041B000D7F85C80BC69012607F124001EF0B6FF29
:1041C000F969524607F124001EF0BAFF33BA0422FF
:1041D00007F1200107F1240001363B621EF0B0FF19
:1041E000B9F1000F06D0B96D4A4607F1240009B1B4
:1041F0001EF0A6FF594607F124001EF0ABFF3B6EF0
:10420000454503EB04002A46594628BF424625F09F
:10421000D9FAFB6D2C44A342A8EB0508CCD807F1D2
:1042200024001EF043FFB8693437BD46BDE8F08F67
:104230000C4B0D491B68D86824F098FC0123BB6126
:10424000B8693437BD46BDE8F08F064B0749F1E742
:10425000044B0749EEE700BF00804E400000F03FEE
:1042600000004040400A0020A89F0200889F0200F2
:10427000689F020070B584B0184E304621F0F2F904
:1042800020B3174D4FF47821296001AA304617F06A
:10429000C5FC044660B9029BAB8131680323284604
:1042A000EB8102F067FA044648B9204604B070BDBD
:1042B0000C48452100F01AFC204604B070BD0A48A5
:1042C000452100F013FC204604B070BD3268074859
:1042D000452100F00BFC4FF0FF34E6E7680B0020AF
:1042E00008140020E89F020008A00200C49F0200FA
:1042F00038B5024604460D4610483D23012102F020
:104300004DFD021E00DD38BD931C10D129686A687E
:10431000AB68E868E06021606260A36029696A694F
:10432000AB69E869E06121616261A36138BDBDE804
:1043300038400348452100F0D9BB00BF08140020D5
:1043400020A0020008B502463D230648012102F0E4
:10435000ABFB002800DD08BDBDE808400248452150
:1043600000F0C4BB0814002058A002002DE9F04F53
:10437000B1B0BC4E0096202598460DF138090623B1
:104380000C4607469246CDF808900A460195294604
:1043900018463E9EFFF796FE002840F0E580B24B9F
:1043A00048220DF1780BCDE90032CDF808B029464E
:1043B00009234A460620FFF785FE002840F0CD80FD
:1043C000022130461EF0ACFB3D9907F12002392353
:1043D00030461CF0C7FF002840F0D3803D9930469E
:1043E0001CF0FAFF002840F0C680242259465046AF
:1043F00019F038FE27A92422404619F033FE242262
:104400005946504619F06AFE27A92422404619F061
:1044100065FE3B98012206F14C011AF047F910F1B4
:10442000100F00F0C880002840F0B3803B9A3A9803
:1044300051461AF0FFFC10F1100F024600F0C78041
:1044400010F10C0F00F0C88010F10A0F00F0C980C5
:10445000002840F0AB803A99012250461AF010F93A
:1044600010F1100F00F09B80002840F0AA803B9ACA
:104470003A9841461AF0DEFC10F1100F00F0BC80B3
:1044800010F10C0F00F0BE8010F10A0F00F0C08098
:10449000002840F0AB803A99012240461AF0F0F82B
:1044A00010F1100F7BD0002840F08B805946242259
:1044B000504619F013FE27A92422404619F00EFE9B
:1044C00006F128030193CDF80080DDE93C13524644
:1044D00030461DF041F910F5994F054600F0AA80CD
:1044E00010F1100F00F0AC80002840F097803C994C
:1044F00030461CF071FF002840F096801D2306AF67
:10450000CDE9007301223C990595304605AB1CF0BE
:10451000D7FE10F59E4F024600F09E80002840F026
:1045200096803D460FCD16AE0FC695E80F0007C624
:104530004D4633701AAF2E460FCEBE4220606160EA
:10454000A260E360354604F11004F4D107CD2B7866
:10455000237320606160A26003E04448452100F0BD
:10456000C5FA31B0BDE8F08F4148452100F0BEFAF0
:1045700031B0BDE8F08F024645213E4800F0B6FA62
:10458000EFE7024645213C4800F0B0FA31B0BDE803
:10459000F08F02464521394800F0A8FAE1E7384893
:1045A0006FF00F02452100F0A1FADAE73548452106
:1045B00000F09CFAD5E702464521334800F096FA10
:1045C000CFE702464521314800F090FAC9E730486C
:1045D000452100F08BFAC4E72E48452100F086FA09
:1045E000BFE72D48452100F081FABAE70246452190
:1045F0002A4800F07BFAB4E702464521284800F03B
:1046000075FAAEE702464521264800F06FFAA8E7A2
:1046100002464521244800F069FAA2E702464521F6
:10462000224800F063FA9CE702464521204800F04A
:104630005DFA96E7024645211E4800F057FA90E7DA
:104640001D486FF00F02452100F050FA89E71B4822
:10465000452100F04BFA84E71948452100F046FA5D
:104660007FE700BF90A00200D0A00200DCA0020003
:1046700098A0020054A1020014A10200B4A10200FB
:10468000D4A20200A0A2020080A102000CA302009A
:10469000E0A102001CA202005CA20200FCA3020036
:1046A0003CA3020078A30200B8A30200C0A4020049
:1046B00000A5020030A4020078A4020060A5020058
:1046C00038A502002DE9F047C4B0814607A88A4604
:1046D0000DF1340819F0F0FA0AA819F0EDFA10AF4C
:1046E000404619F0E9FA13AE384619F0E5FA1CAC69
:1046F00030461BF09DFE25AD20461BF099FE284656
:104700001BF0A4FE51460AAB07AA4846CDE9034573
:10471000CDE90176CDF80080FFF728FE07A819F053
:10472000D1FA0AA819F0CEFA404619F0CBFA384669
:1047300019F0C8FA30461BF0ABFE28461BF0ACFE61
:1047400020461BF0A5FE44B0BDE8F08710B509482F
:10475000442100F0CBF9002006F054FC044608B9CF
:10476000204610BD02464521034800F0BFF920460F
:1047700010BD00BFA0A50200B8A5020070B5444D51
:10478000444888B0442100F0B1F92A46424B52F81F
:10479000270F95F821105468C3F805009068C3F8F6
:1047A0000940C3F80D00D4681069928AC3F811401B
:1047B0008909C3F81500A3F81920D97606F052FE2E
:1047C0000446002854D195F82130344E95F8222023
:1047D00095F8230095F82410327163F03F0395F8A3
:1047E00025207371F07095F8263033703046B17023
:1047F000727004F0E7FB44210246294800F076F984
:10480000062142F2050005F02DFA054630B3314687
:104810000622083016F02CFC2246294642F20500FA
:1048200005F00EFB0446D8B91E4D1F48442100F088
:104830005DF90FCD009403AC0FC42A6822601B4BB6
:104840001B49012203A806F0FBFD0446C0B9194824
:10485000442100F04BF9204608B070BD6FF06804A9
:1048600015482246452100F041F9204608B070BDA8
:1048700002464521114800F039F9204608B070BDC4
:10488000024645210E4800F031F9204608B070BDBF
:1048900040140020DCA50200900100203814002004
:1048A00030A60200A09E020038A6020008A802005E
:1048B00028010020A4A602004CA6020004A60200C3
:1048C00078A602002DE9F04385B0FFF7D3FC00285D
:1048D00078D13F4F3F483946FFF70AFDFFF736FFD3
:1048E0000646002860D13C483A4D20F05DFEFA6D46
:1048F00044210446394800F0F9F8394A394844213E
:1049000000F0F4F839462022042001F0DDFB364A9D
:104910003448442100F0EAF807F12001392204204C
:1049200001F0D2FB3148442100F0E0F8B8461DE028
:104930000096C8472E48442100F0D8F8FB6D4EF68B
:10494000602000FB03F0002121F0D4FFD4F8109088
:104950000121002303AA20460391B9F1000F2AD0B8
:104960000096C8472348442100F0C0F82946404635
:10497000FFF7A8FE2846FFF7E5FCFFF7FFFED4F897
:1049800010904FF0050C002303AA01212046CDF81A
:104990000CC0B9F1000FCBD1CDF800904B4603AA63
:1049A000012120F079FEC5E71348452100F09EF86B
:1049B00005B0BDE8F083CDF800904B4603AA20F087
:1049C0006BFECFE70D48452100F090F8F0E700BFFF
:1049D000300100204014002018A7020020A7020088
:1049E00058A7020030A6020074A702009CA702008C
:1049F000B4A70200C8A70200F4A60200CCA60200D9
:104A0000B2B130B4551E0B4A0D44013911F8013FC3
:104A1000584003098D42D35C83EA0010C0F30314AD
:104A2000C3B2105D80EA0310C0B2EFD130BC704752
:104A3000704700BF08A8020040B1436803F00303B9
:104A4000022B06D0032B04D0012B05D06FF01500EC
:104A500070470368002BF9D0002383601846704725
:104A60004268816002F00302022A034604D0032A4E
:104A70000BD000205860704710B5006800245C60BF
:104A800010B122F00FFE204610BD006800225A60CF
:104A9000704700BF002070470B68024A013312685C
:104AA0000B601047B00100200A68AAB130B4D1E908
:104AB0000143A34207DA651EAB4208D05C1C8C6040
:104AC000D05430BC7047013330BC8B607047002538
:104AD0008C60D55430BC70478B6801338B60704755
:104AE000014B1860704700BFB00100200FB410B533
:104AF00082B004AB002453F8042B0548009301A9AD
:104B0000019400F003FE02B0BDE8104004B070470D
:104B1000994A000070B584B004460E46002501A9EC
:104B200006480395CDE9014600F0F0FDDDE90230CD
:104B30009842B8BF255404B070BD00BFA94A000018
:104B40000CB400B583B004AB53F8042B0193FFF70A
:104B5000E1FF03B05DF804EB02B070472DE9F041CE
:104B60000D4607461946281D1E469046FFF778FF5A
:104B700040B104463346424629463846A446BDE87D
:104B8000F0416047BDE8F0812DE9F04F0546008B0C
:104B900010F0080A83B040F0D28000F00703022929
:104BA000DFF824B2CDF804A01F4640F0ED809CB29F
:104BB000002B40F083802B68002B00F0838020F0D6
:104BC00007002B6940F0060080B2D3F800902883DC
:104BD000A24694460626BE425DD0A96800295AD056
:104BE00040F0080028838CF31188BFF36F8FA96809
:104BF000C1B10F68002F38BF0027A04653464C684C
:104C000032462846A04767B13B683946002B38BF7B
:104C100000231F464C68534632462846A047002FC3
:104C2000F2D14446002C3FD1B9F1000F02D05946D1
:104C30002846C8474FF02003EFF3118C83F3118807
:104C4000BFF36F8F2E8B26F00806B6B22E83624616
:104C5000F1063FD526F0100080B206F00706288343
:104C60003746D5F814A0BAF1000F71DB711F012986
:104C70007BD94FF00009042E4C46ACD120F0070040
:104C80002C6880B228834E46002CA4D040F020002F
:104C900028834C469FE7002C46D040F0080028832C
:104CA0008CF31188BFF36F8F214624685346324638
:104CB0002846FFF753FF002CF6D1B5E7022C14D19C
:104CC0006C8B24B394468CF31188BFF36F8F03B0C1
:104CD000BDE8F08FB306F6D526F0200080B2288319
:104CE00006F0070700F0070361E7012CEAD12B6803
:104CF000002BE7D02B6920F0070040F005000024CE
:104D0000D3F808902883A2469446052663E720F04E
:104D100007002B6940F0040080B2D3F80490288388
:104D2000A2469446042656E7B9F1000F2AD040F077
:104D3000080028838CF31188BFF36F8F77E7012970
:104D40000CBF40F0100040F0200028839446BAE7E2
:104D500020F00700019B2C686B6040F00100288365
:104D60002B6001264FF0000935E7019B2C686B6032
:104D7000062E2B600BD020F0070080B2002628837F
:104D8000B14628E7064663E71E46944669E7002CCD
:104D9000214638BF002129B16B8B096801336B8331
:104DA0000029F8D120F0070189B26B8B41F0020095
:104DB00028834FF000090226002B7FF40CAF41F04E
:104DC0002200288307E700BFCD4D000010B40C4639
:104DD0004FF02001EFF3118281F31188BFF36F8F41
:104DE0000121446110BCFFF7CFBE00BF70B110B508
:104DF0000C4641B1081DFFF71FFE18B9A36833F038
:104E0000030300D110BD6FF0150010BD6FF0150049
:104E1000704700BF70B169B10B685BB14B684BB1B3
:104E20000023C0E90033C0E90233C0E90533016162
:104E3000184670476FF01500704700BF70B5054603
:104E40000E46FFF7D3FF00281DDB4FF02003EFF3E2
:104E5000118283F31188BFF36F8F6B8B298B4FF611
:104E6000FF70834201F0070429D0022C19D08B0770
:104E70000AD0062C08D0052C31D082F31188BFF35C
:104E80006F8F6FF0040070BD002333606B68EBB16F
:104E90001E606E60ECB928460221FFF775FE2046C1
:104EA00070BD01336B8382F31188BFF36F8F0023D2
:104EB000284631462246FFF751FE204670BD82F358
:104EC0001188BFF36F8F6FF00A0070BDC5E90066EF
:104ED000E0E7204682F31188BFF36F8F70BD82F345
:104EE0001188BFF36F8F6FF0850070BD10B54FF064
:104EF0002001EFF3118281F31188BFF36F8F048BD0
:104F000004F00704022C0AD0012C0CBF6FF004003F
:104F10006FF0850082F31188BFF36F8F10BD418B56
:104F2000013989B2418309B12046F3E72146FFF7F1
:104F30002BFE204610BD00BF08B521F00DFD00205E
:104F400008BD00BF08B521F033FD10F10B0F05D0EF
:104F500010F1100F08BF6FF0730008BD6FF0730001
:104F600008BD00BF0C4608B511461A460346204648
:104F7000984721F0DBFC03F007FE00BF10B50446A4
:104F80004FF0FF324FF0FF33204620F089FF00F151
:104F900008020028F4D04168BFF35B8F52E8003F5D
:104FA00023F0010C42E800CEBEF1000FF6D1BFF3B2
:104FB0005B8FDB0700D5884721F044FCE0E700BFAA
:104FC00070B48468B4F5004F00EBC10320D3541AC9
:104FD00066005D685E608668891A01EB5501B6F56A
:104FE000004F4FEA410500EBC2031BD35D608568AB
:104FF000B5F5004F17D340F832408468B4F5004F40
:1050000012D321F000431A4470BC40F832107047AC
:105010005E888D1A541A05EB560166005E804D00BD
:1050200000EBC2035D801C805B8802EB530270BC06
:1050300020F83210704700BF8368B3F5004F30B4DA
:1050400000EBC10100EBC20411D34B6865685B083B
:1050500003EB55035D004D608168B1F5004F0DD342
:10506000616802EB510230BC40F8323070474B8827
:1050700065885B0803EB55035D004D80618802EB9A
:10508000510230BC20F83230704700BF8368B3F55E
:10509000004F70B400EBC10216D253885B08B3FA1C
:1050A00083F3C3F11F0300EB83052C69002C40D070
:1050B00000EBC405AB889380D48000EBC30389B2B6
:1050C000D980A98070BC704753685B08012BF9D068
:1050D000013BB3FA83F3C3F11F0300EB83052C6993
:1050E000BCB100EBC405AB6893608668B6F5004FB1
:1050F000E2D3D4608268B2F5004F00EBC303DED385
:10510000D9608368B3F5004F28BFA960DAD289B2AD
:10511000D7E7C468012606FA03F31C43C46029617B
:1051200091608368B3F5004F28BFD160CAD28BB2BB
:1051300008E0C468012606FA03F31C438BB2C4607E
:105140002961938070BCD380704700BF10B484681D
:10515000B4F5004F00EBC10313D3DC68A1421FD0AC
:105160009B68043200EBC30140F82240CC608268A7
:1051700000EBC400B2F5004F28BF83600ED29BB293
:105180000BE0DC88A1420BD09B88043200EBC3010A
:1051900040F8224000EBC400CC80838010BC7047F4
:1051A000C36810BC01219140043223EA01030021AD
:1051B000C36040F8221070478368B3F5004F10B405
:1051C00000EBC1030BD25B880124E3405A1C121B85
:1051D000B2FA82F210BCC2F11F02FFF7B7BF5B68E0
:1051E0005B08012B01D00224F0E710BC704700BF20
:1051F000F8B58368B3F5004F04460D464FEAC10683
:1052000000EBC10714D3796805EB510100EBC10332
:105210005B68D80736D5A159691A04EBC1035B68EE
:10522000DB0714D529462046BDE8F840FFF72EBF1E
:10523000798805EB510100EBC1039B78DA0721D592
:10524000A15B691A04EBC1035B88DB07EAD4204643
:10525000FFF7B2FFA368B3F5004F2CBFA159A15BC4
:105260002046691A2A46FFF7E7FEA368B3F5004F08
:105270002CBFA359A35BED1A29462046BDE8F84090
:10528000FFF704BF2046FFF797FFA368B3F5004F71
:105290002CBF7A687A88294605EB52022046FFF730
:1052A000CBFEA368B3F5004FB5D2A15B691A04EB3E
:1052B000C1035B88C9E700BF2DE9F0418668B6F5F8
:1052C000004F27BF06F1FF3301F1FF340C46334690
:1052D000B4FA84F4B3FA83F3C3F11F03C4F11F02D9
:1052E000934223DB00EB8208D8F810E0BEF1000FF8
:1052F00013D075460323B6F5004F00EBC50C19D348
:10530000DCF80470B1EB570F23D9DCF80C50C8F867
:105310001050013B01D0AE45EDD1C368C4F120046B
:105320004FF0FF3202FA04F41C400BD1002528464E
:10533000BDE8F081BCF80270B1EB570F09D9BCF899
:105340000650E4E794FAA4F2B2FA82F2131D50F880
:1053500023502946FFF7FAFE2846BDE8F08100BF3A
:10536000E1B100688368B3F5004F0BD20439091A24
:1053700021F007030344C9085A8822F001025A8029
:10538000FFF736BF0839091A21F007030344C9089B
:105390005A6822F001025A60FFF72ABF704700BF27
:1053A000F8B5056891B3AB68B3EBD10F2ED9B3F55F
:1053B000004F01F107012CBF082404240C44E40829
:1053C00021462846FFF778FF00B3AB68B3F5004FDE
:1053D0004FEAC00605EBC0070FD37B68B4EB530F51
:1053E00016D343F001037B60AB68B3F5004F2CBFCD
:1053F0000820042030442844F8BD7B88B4EB530FC8
:1054000006D343F001037B800420F3E70020F8BDBE
:105410000444014622462846FFF7D2FD2146FFF705
:1054200035FEAB68B3F5004F01D27B88E9E77B68B6
:10543000D7E700BF2DE9F0410668B368B3F5004F28
:105440000D462CBF082104218D42144643D9002A61
:105450003DD0B3EBD20F3AD9D11D2944C90830460B
:10546000FFF72AFF074690B3B368B3F5004F34BF88
:105470000421082101EBC00105F1FF323144114440
:10548000C5F1000505EA01052C4434BF6FF00301A6
:105490006FF0070107342944891B24F00704A41B7B
:1054A000B0EBD10F4FEAE4044FEAD10823D3B3F5B0
:1054B000004F06EBC80713D37B6808EB53029442F6
:1054C00023D343F001037B602846BDE8F08100252B
:1054D0002846BDE8F081BDE8F0411146FFF760BF06
:1054E0007B8808EB530294420FD343F001037B8087
:1054F0002846BDE8F081014642463046FFF760FD90
:105500003946FFF7C3FDB368D1E74146224630462E
:10551000FFF756FD2146FFF7B9FDB368B3F5004F1D
:1055200001D27B88E1E77B68CBE700BFB2F5802F33
:105530002DE9F0032CBF08240424141B0C4407316C
:1055400021F0070224F00704A41AE7084FF000082E
:105550004FF000090023B7F5004F0260C2E900894F
:10556000C2E902733DD2B7FA87F5C5F1240189007B
:105570000731D5F120054FEAD1013DD000231E4669
:1055800002F10C000133AB4240F8046FFADBB7F5CF
:10559000004F4FEA410330D37F1A02EBC10043F0C2
:1055A00001037D00536045609368B3F5004F2CD331
:1055B00042F831109068B0F5004F02EB040326D397
:1055C0005E609068B0F5004F23D317519068B0F536
:1055D000004F1FD301205860BDE8F0031046FFF7CD
:1055E00055BD7D1EB5FA85F5C5F124018900073149
:1055F000C908C5F12005C1E74B007F1A02EBC100C5
:1056000043F001037D005380458001801319002081
:1056100058801F80588840F001005880BDE8F00392
:105620001046FFF733BD00BF2DE9F04F364C9346CF
:10563000D27883B012F804A00C9E6F2A04460D465F
:105640001F460AF0030A43D039D902F0F702702A44
:1056500037D00A234FF00A084FF0000901930AE0FF
:105660004D45DAB208BF444506F8012D19D3BE42B4
:1056700017D904460D4642464B4620462946FBF7BD
:10568000E5F9092A02F13003EAD9BAF1010F0CBF9A
:10569000373257324D45D2B208BF444506F8012D86
:1056A000E5D29BF800309B0605D5019B082B20D046
:1056B000019B102B13D0304603B0BDE8F08F582A61
:1056C000C7D110234FF010084FF000090193D2E723
:1056D00008234FF008084FF000090193CBE79BF82F
:1056E0000230304643F010038BF8023003B0BDE8BF
:1056F000F08F9BF80230304643F008038BF80230FD
:1057000003B0BDE8F08F00BF15FF02002DE9F04F98
:10571000834693B01078039398B190460C464FF0AF
:1057200000095D4625280FD02146A847002808DB40
:1057300008F1010809F1010998F800000028F1D1E9
:10574000484613B0BDE8F08F98F801300022252BB1
:10575000CDE90C22CDE90E221192109200F0E380E7
:10576000164610469446964608F10107A3F120011B
:1057700010290AD8DFE801F0CF0909CD0909090984
:10578000090909D109D40909C900BEF1000F05D0E2
:105790009DF8381041F004018DF83810BCF1000F6D
:1057A00005D09DF8381041F008018DF8381028B167
:1057B0009DF8381041F010018DF838102EB19DF889
:1057C000381041F020018DF838102AB19DF83820AA
:1057D00042F040028DF838209DF8382002F0440154
:1057E000442900F07B819DF838202A2B42F080026A
:1057F0008DF8382000F08081994EF25C52071946EE
:10580000384648BF002217D510F8013F16F803C0EC
:1058100002EB820201EB42021CF0040FA2F1300203
:105820001946F1D1B84207D09DF838100F92D20F27
:1058300062F341018DF838109DF839202E2B0CBFF2
:105840000121002161F341028DF8392027D14378ED
:105850002A2B00F1010700F0DD83814EF25C12F08B
:105860000402194618BF002200F0F88317F8013F20
:10587000F05C02EB820201EB42024007A2F130022F
:105880001946F3D43846D10F9DF838601092C6F30C
:1058900040021143324661F341028DF83820A3F1F2
:1058A0004C022E2A00F26381DFE812F096026101B9
:1058B00061016101610161016101610161016101D8
:1058C00061016101610161016101610161016101C8
:1058D00061016101610161016101610161016101B8
:1058E00061016101C3026101BD026101AC0261019C
:1058F000610161016101610161016101A602610152
:1059000061016101610161018802012217F8013F13
:105910002CE70126FAE70120F8E74FF0010CF5E744
:105920004FF0010EF2E78DF83B0011461346944606
:10593000174608F1020B9DF938009DF838A00028A1
:10594000B4BF0F9E4FF0FF360398BCF1000F00F07C
:10595000A38050F8047B0597002F08DA9DF8397072
:105960006FF341078DF839704FF0FF370597002727
:105970000129CDE90F777ED0022968D0042900F0F3
:10598000B280032900F0408303901AF0030F40F027
:105990008A809DF83B20253A532A56D8DFE812F03A
:1059A000870255005500550055005500550055001B
:1059B000550055005500550055005500550055003F
:1059C000550055005500550055005500550055002F
:1059D000550055005500550055005500550055001F
:1059E000550055005500550055005500550055000F
:1059F00055005500550055005500550055005500FF
:105A000055005500550076015500550055005500CC
:105A1000550055005500550055005500A502F601EA
:105A20005500550055005500F6015500550055002C
:105A30005500910276017C02550055006B0255001D
:105A40007601550055007601D146D84674E6D91E38
:105A500004297AD8DFE801F072060679790000BFE0
:105A600015FF0200073020F00702F2E80201CDE93D
:105A70000C01039289E7D91E04294ED801A757F8D3
:105A800021F000BF0B5B0000655A0000655A000062
:105A90001B5B00001B5B0000BF074CBF109F4FF05B
:105AA000FF37059763E700265F4608E098F8000097
:105AB000A847002808F10108FFF643AE0136B845B3
:105AC0002146F3D31FB998F800000028F0D1002E2A
:105AD0003046FFF636AEB144B8462DE66FF3861277
